:020000040800F2
:10000000002000202D160008F1150008F915000841
:1000100000000000000000000000000000000000E0
:1000200000000000000000000000000001160008B1
:1000300000000000000000000B1600081516000864
:100040007D160008000000007D1600087D160008DF
:100050007D1600087D1600087D1600087D16000834
:10006000000000007D1600087D1600087D160008BF
:100070007D1600087D1600087D16000800000000AF
:100080007D16000825110008000000007D160008FC
:100090007D1600087D1600087D1600087D160008F4
:1000A0007D1600087D1600087D1600087D160008E4
:1000B0007D160008000000000000000000000000A5
:1000C00010B5064C2378002B07D1054B002B02D02E
:1000D000044800E000BF0123237010BD0C00002085
:1000E0000000000028330008044B10B5002B03D09B
:1000F0000349044800E000BF10BDC04600000000F6
:100100001000002028330008002243088B4274D3DB
:1001100003098B425FD3030A8B4244D3030B8B4208
:1001200028D3030C8B420DD3FF22090212BA030C11
:100130008B4202D31212090265D0030B8B4219D3F2
:1001400000E0090AC30B8B4201D3CB03C01A524112
:10015000830B8B4201D38B03C01A5241430B8B425A
:1001600001D34B03C01A5241030B8B4201D30B0343
:10017000C01A5241C30A8B4201D3CB02C01A52416A
:10018000830A8B4201D38B02C01A5241430A8B422D
:1001900001D34B02C01A5241030A8B4201D30B0216
:1001A000C01A5241CDD2C3098B4201D3CB01C01A30
:1001B000524183098B4201D38B01C01A524143093A
:1001C0008B4201D34B01C01A524103098B4201D328
:1001D0000B01C01A5241C3088B4201D3CB00C01A95
:1001E000524183088B4201D38B00C01A524143080D
:1001F0008B4201D34B00C01A5241411A00D2014632
:10020000524110467047FFE701B5002000F006F8A4
:1002100002BDC0460029F7D076E770477047C04658
:100220009E2110B5C905041C00F086FD002803D1ED
:10023000201C00F0E1FC10BD9E21201CC90500F02F
:1002400077FA00F0D9FC80231B069C466044F2E755
:10025000F0B546464F46D6464502C0B5C30F4700E7
:1002600098460E1C6D0A3F0E5BD0FF2F21D08023D5
:10027000ED00DB041D43002399469A467F3F74023C
:100280007300640A1B0EF60F002B20D0FF2B43D007
:1002900080220020E400D20414437F3B4246FF1A30
:1002A0004B4672400F2B00D99DE071499B00CB5803
:1002B0009F46002D5AD108239946063B74029A4660
:1002C0007300FF27640A1B0EF60F002BDED1002CF3
:1002D0003BD1012342464946724019430E2918D8A2
:1002E0006448890041588F465346022B00D1B8E03C
:1002F000032B6ED042462C00012B40D1002000245D
:10030000C0052043D2071043E0BCBA46B146A84618
:10031000F0BDFF200024F3E7002C20D10223FF3F93
:10032000D8E7002D05D104239946033B00279A46C0
:10033000A5E7280000F00AFD7627431F9D40002313
:100340007F4299469A463F1A99E7200000F0FEFC4A
:10035000431F9C4076235B421B1A00209EE7032329
:100360004A461A4391460320FC3397E70C239946EB
:10037000093BFF279A4682E703282CD03200380039
:100380007F30002847DD630704D00F232340042B70
:1003900000D00434230103D53800374B80301C4093
:1003A000FE28B6DCA401640AC0B2A9E780240022BA
:1003B000FF20E403A4E78023DB031D4201D01C429D
:1003C0000BD08024E4032C4364024246FF20640ADD
:1003D00096E746462C008023DB031C436402320070
:1003E000FF20640A8CE76D01600185422DD21B233A
:1003F0000024013F0126290064006D00002901DB73
:10040000854201D32D1A3443013B002BF3D16B1EDF
:100410009D412C43B3E701231B1A1B2B00DD6DE725
:1004200021009E37D940BC400B00611E8C41234304
:10043000590704D00F211940042900D00433590171
:1004400013D49B0100205C0A5AE71A2301242D1AB9
:10045000D0E7981E43425841404232000024C0B2C7
:100460004EE74246FF2000244AE70120002447E7E8
:100470004033000880330008FFFFFFF7F0B54F4618
:100480004646D6464400C0B546020F1C760A240EE6
:10049000C50F002C00D1DAE0FF2C74D08023F600C9
:1004A000DB041E43002399469A467F3C7B025B0A8D
:1004B00098467B001B0EFF0F002B74D0FF2B00D142
:1004C0008EE042468021D200C90411437F3B2A00BE
:1004D000E4184B467A408846D2B20A2B75DC4B466C
:1004E0000020022B0FDD494601238B40A621C900C5
:1004F0000B4269D1902189000B4200D000E1882194
:10050000194200D0F5E041460904090C43460800B1
:10051000350C36041B0C360C704369435E435D4357
:100520007618030C9B19994203D9802149028C4605
:10053000654400041904000C09188E01701E8641E0
:100540001B0C890E5B190E439B011E431B016CD4CF
:1005500023007F33002B00DCB1E0150071070BD0C6
:100560000F2021003040042806D00436320103D584
:100570006E4B1E400B008033FE2B00DDBDE0B20150
:10058000520ADBB248E0002E00D092E008239946E0
:10059000063B9A467B025B0A98467B00FF241B0EB3
:1005A000FF0F002B8AD14246002A64D1494601320E
:1005B000114389460A2908DC7D400120EAB202295C
:1005C00091DC1500002227E015005346022B00D1D4
:1005D00093E0032B1AD0012B2CD1002300221BE027
:1005E0004346FF34002B55D003214B460B431900E3
:1005F0000A2B00DC92E00F2B00D08CE08022D2038B
:10060000164203D04346134200D17DE08022D2033C
:1006100032435202520AFF23D805ED071043284304
:10062000E0BCBA46B146A846F0BD012315007108EA
:100630001E400E4323008033611C002B41DD7207F6
:1006400094D00F223240042A00D08EE78EE7002E8D
:1006500005D104239946033B00249A4626E730003F
:1006600000F074FB7624431F9E40002364429946A9
:100670009A46241A1AE7404600F068FB4B46241AB3
:10068000763C0A2BA1DC4346053883407D409846E2
:10069000EAB224E74A46023313432A007A40D2B230
:1006A0000A2B92DC49461500002926D099460220E3
:1006B00019E70C239946093BFF249A46F6E61500F4
:1006C00021000122D31A1B2B00DD86E79E31320068
:1006D0008E40DA40731E9E413243530704D00F23ED
:1006E0001340042B00D00432530110D50123002203
:1006F00092E73D004646824667E7FF2300228BE7EC
:1007000080220025D20386E73D001A4383E7920149
:100710000023520A80E73D00464677E72A0001237E
:100720007A408B400320D2B2E9E6C046FFFFFFF7D4
:10073000F8B54746CE46430280B55F0A9B0945009F
:100740004A009C464B02C40FCE0F2D0E580A120EC3
:100750009909FF2A6BD001235E40AB1AB4424BD0FB
:10076000002B00DCFFE0002A00D188E0FF2D00D143
:10077000EFE08022D204114301201B2B08DC08008B
:100780002022D840D31A99400B005A1E9341184397
:1007900063461B1A9C4663465B0100D4CDE063466A
:1007A0009F01BF09380000F0D1FA3B0005388340B3
:1007B000854200DCA2E0B74A2D1A1A4094465A0737
:1007C00000D1C3E00F221340042B00D1BEE004236C
:1007D0009846C44463465B0100D4B7E0681CFE2D14
:1007E00000D0A5E0FF200022C0051043E40720430D
:1007F000C0BCB946B046F8BD002B00DCEBE1002AD6
:1008000046D0FF2D00D1A4E08022D20411431B2B3F
:1008100000DCFBE0052398462B00C4446246D70861
:10082000FF2B00D195E07A02520AD8B2DCE72B0008
:10083000FF3B9946002918D101235E40B44200D104
:10084000CAE04B46002B2DD0002D00D03CE1FF2309
:100850006446002C00D15FE15D1E012B00D174E1E4
:100860003400FF2B74D02B0003E1B44200D19CE094
:10087000002B17D0002DEAD0070034006CE00029CF
:10088000CCD05A1E012B2BD0FF2B62D0130073E764
:100890000029C3D05A1E012B00D11EE1FF2B58D0D6
:1008A0001300B4E7FE226B1C1A420DD1002D60D05C
:1008B0006346002B00D020E1002900D028E18022EF
:1008C0000024FF20D2038FE763465F1A7B0100D527
:1008D000FEE0002F00D065E700240020002283E71F
:1008E0006346591A4B0100D419E18F01BF09380042
:1008F00000F02CFA3B000538834001252022401BE4
:100900000130121A19009340C1405A1E93411943F5
:100910008C460B1EE1D05B0700D152E10F2300256E
:100920000B40042B00D052E701204A0100D492E092
:10093000C0B263469A01520A56E763465B0705D088
:100940000F2362461340042B00D040E72B0065E7DD
:100950000700002F00D145E78022D2033A4352021C
:10096000FF20520A40E7002B79D1FE226B1C1A426D
:10097000AAD16346002B00D1F5E0002900D1D1E0D7
:100980005F1A8023DB041F4200D10EE1624601247E
:100990008A1A944600203440002A00D124E701201E
:1009A0001A42C6D10023D7083DE7002B17D0002DEF
:1009B00000D0AFE0FF236546002D00D1ADE05E1E04
:1009C000012B00D189E0FF2BC2D01B2E00DCABE055
:1009D0004B1D9C46130021E74B46002B70D1FE2295
:1009E0006B1C1A425ED1002D00D0C3E06346002B81
:1009F00000D1D0E0002900D194E00A006244530104
:100A000000D4D8E092010120520AEDE6080020222D
:100A1000D840D31A99400B005A1E934103439C447B
:100A200063465B0189D50135FF2D00D1DAE66246C8
:100A300001231949134052080A401A4313009446EF
:100A40005B0704D00F231340042B00D0BFE663469E
:100A50005B0100D5C2E66346DF082B00E3E6531BCB
:100A6000002D00D1F4E680206446C0040443A4466F
:100A7000340001201B2B09DC20256046D840EB1AEE
:100A800065469D402B005D1EAB4118430B1A9C46EA
:100A9000150080E6FFFFFFFBFFFFFF7DFE226B1CC2
:100AA0001342A3D0FF2B00D19CE6614449084A07BA
:100AB00049D00F220A40042A45D00A1D9446ADE6CB
:100AC000002D00D176E78DE63400FF2000228BE672
:100AD00063460124CF1A344064E661444B016DD56E
:100AE00048084449014043072CD00F230340042BFE
:100AF00028D00B1D9C46022390E6002900D12BE74D
:100B00008023DB039F4200D226E7984200D323E7ED
:100B10000124344007001FE734008C467EE60123A1
:100B2000CF0880E600237EE620206546801B8540B6
:100B300063462800F340451EA84103439C46150028
:100B40008C446DE70223CF086DE60F1B7B0128D58F
:100B5000BF01BF09380000F0F9F83B0005388340B9
:100B600034000125CAE6002900D1B5E601240700BA
:100B7000344058E66346002B00D1E9E6002900D155
:100B8000EAE68023DB039F4200D2E5E6984200D3E9
:100B9000E2E60700E0E6002900D19EE60023CF0848
:100BA00041E634000123FF083DE6002F00D193E623
:100BB0000023FF0837E60023D70834E60123CF08D7
:100BC00031E680220B00D20401201340114200D0F4
:100BD000AEE6CF0827E6002B00D15FE7561B002DBD
:100BE00001D13300E7E680236046DB0418438446E6
:100BF000EBE6C046FFFFFF7D41024200C30F490AFA
:100C00000020120E7E2A03DD9D2A02DD094A981873
:100C10007047802000040143952A07DC9620821A41
:100C2000D1404842002BF3D10800F1E7963A9140B9
:100C3000F7E7C046FFFFFF7F70B5002812D0C3174B
:100C4000C5185D40C40F280000F080F89E231B1AD1
:100C5000962B0FDC082838D0083885406D026D0AC5
:100C6000D8B202E0002400200025C0052843E40794
:100C7000204370BD992B14DC421F95402A00154972
:100C8000114055071CD00F252A40042A18D00431E2
:100C9000CA08490115D59F235202181A550AC0B235
:100CA000E3E705222900121AD14002001B329540C9
:100CB0002A00551EAA410A43064911405507E2D1B0
:100CC000CA085202550AD8B2CFE76D026D0A8E30BB
:100CD000CBE7C046FFFFFFFB844608006146FFE705
:100CE0001FB500F0C1F8002801D40021C8421FBD83
:100CF00010B500F049F84042013010BD10B500F0C9
:100D0000B3F8002801DB002010BD012010BDC04653
:100D100010B500F0A9F8002801DD002010BD012069
:100D200010BDC04610B500F057F8002801DC0020C7
:100D300010BD012010BDC04610B500F04DF80028D0
:100D400001DA002010BD012010BDC0461C21012386
:100D50001B04984201D3000C10391B0A984201D39E
:100D6000000A08391B09984201D30009043902A27C
:100D7000105C40187047C0460403020201010101E3
:100D8000000000000000000070B542004E024C0060
:100D900045026D0A120EC30F760A240EC90FFF2AF0
:100DA00010D0FF2C0CD00120A2420AD1B54208D1AC
:100DB0008B420FD0002A04D12800431E984100E046
:100DC000012070BD0120FF2CFBD13543F9D14B40F0
:100DD0001800F6E70020F4E730B5420044024D0267
:100DE000C30F4800640A120E6D0A000EC90FFF2AD5
:100DF00018D0FF280AD0002A1ED100280AD1002DC1
:100E000029D0002C2DD14800013830BD002D25D12E
:100E1000002A01D1002CF6D08B4219D001205B4270
:100E20001843F2E7002C19D1FF28F7D1002D15D176
:100E300000208B42F2D1E8E70028EFD08B42EDD1C1
:100E40008242EBDC04DBAC42E8D80020AC42DCD2CE
:100E500058000138D9E7002CD7D0DFE70220404204
:100E6000D3E78B42DAD1EEE730B5420044024D02BF
:100E7000C30F4800640A120E6D0A000EC90FFF2A44
:100E800017D0FF280AD0002A1BD100280AD1002D34
:100E90001DD0002C2DD14800013811E0002D0ED1BD
:100EA000002A01D1002CF6D08B420CD15800013819
:100EB00006E0002C03D1FF2805D1002D15D002201B
:100EC00030BD002806D101205B421843F8E7002C12
:100ED000F6D0F8E78B42F6D18242F4DCE6DBAC4296
:100EE000F1D80020AC42EBD2E0E700208B42EAD1FF
:100EF000E6E78B42E7D1F2E790B58BB000AF284B25
:100F000001228021180001F041FB14243B19180034
:100F100014231A00002102F0DBF921007B18802243
:100F20001A607B1801225A607B1800229A607B1895
:100F30000022DA607B181A4A1900100001F0B6F995
:100F4000174B01224021180001F020FB3B00180044
:100F500014231A00002102F0BBF93B0040221A6062
:100F60003B0001225A603B0000229A603B000022B5
:100F7000DA603B000A4A1900100001F097F9084BAB
:100F800000228021180001F001FB054B00224021C6
:100F9000180001F0FBFAC046BD460BB090BDC0463C
:100FA0000004004880B500AF0A4B002280211800E1
:100FB00001F0ECFA074B01224021180001F0E6FA9B
:100FC000044B01228021180001F0E0FAC046BD4622
:100FD00080BDC0460004004880B584B000AF020068
:100FE000FB1D1A700F23FB1800221A7028E0FB1D4E
:100FF0001B785BB2002B06DA1F4B01228021180000
:1010000001F0C4FA05E01C4B00228021180001F019
:10101000BDFA194B01224021180001F0B7FAFA1D60
:10102000FB1D1B78DB181370134B002240211800A6
:1010300001F0ACFA0F217B181A787B1801321A7074
:101040000F23FB181B78082BD1D10B4B01228021D9
:10105000180001F09BFA084B01224021180001F012
:1010600095FA054B00224021180001F08FFAC04686
:10107000BD4604B080BDC0460004004880B582B0C3
:1010800000AF0200BB1D1A80FFF736FFBB1D1B8897
:101090001B0A9BB2DBB21800FFF79EFFBB1D1B882B
:1010A000DBB21800FFF798FFFFF77CFFC046BD4694
:1010B00002B080BD80B500AF184B1B781A00184BEA
:1010C0009B5C802252421343DBB21BB2C022D2018E
:1010D00013431BB29BB21800FFF7D0FF0F4B5B7896
:1010E0001A000F4B9B5C1BB2C422D20113431BB2EC
:1010F0009BB21800FFF7C2FF084B9B781A00084B01
:101100009B5C1BB2C822D20113431BB29BB21800D6
:10111000FFF7B4FFC046BD4680BDC046B800002002
:10112000BC33000890B583B000AF344B180001F019
:1011300025FF334B180000F06BFC314B0A211800DF
:1011400000F0FAFC031E07D12D4B180000F08CFDB7
:1011500003009AB22B4B1A80294B180000F0ACFC0C
:10116000284B1B881800FFF767FD031C2649181C35
:10117000FFF784F9031C8B21C905181CFFF768F8D9
:10118000031C1A1C214B1A60204B1B682049181C99
:10119000FFF774F9031CBC1D181CFFF741F803008E
:1011A0002380BB1D1B8864211800FEF7ADFF0300E0
:1011B0009BB2DAB2174B1A70BB1D1B886421180052
:1011C000FFF728F80B009BB20A211800FEF79CFFDE
:1011D00003009BB2DAB20F4B5A70BB1D1B880A2169
:1011E0001800FFF717F80B009BB2DAB2094B9A70A0
:1011F000FFF760FFC046BD4603B090BD6800002009
:1012000028000020B000002033335340B4000020F9
:101210000000C842B800002080B500AF00F030FAEE
:1012200000F01CF800F0FEF800F068F8094B180018
:10123000FFF724FF052000F087FA00F0BBF8064B0B
:10124000180001F04FFE031E02D000F043F9C04623
:10125000C046FDE7034800006800002090B591B04B
:1012600000AF10243B19180030231A00002102F0AF
:101270002FF83B00180010231A00002102F028F874
:1012800021007B1812221A607B180122DA607B1879
:1012900001225A617B1810221A617B1810229A6170
:1012A0007B1802221A627B1800225A627B18A02245
:1012B00092039A627B180022DA627B18180001F010
:1012C00083F9031E01D000F005F93B0007221A60E4
:1012D0003B0002225A603B0000229A603B00002241
:1012E000DA603B000121180001F088FC031E01D0E8
:1012F00000F0F0F8C046BD4611B090BD80B584B096
:1013000000AF3B1D18000C231A00002101F0E0FF84
:10131000264B274A1A60254B00225A60234B002295
:101320009A60224B0022DA60204B01221A611F4B87
:1013300004225A611D4B00221A761C4B00225A7659
:101340001A4B00229A76194B0022DA76174BC222EA
:10135000FF32DA61154B00221A62144B242200215D
:101360009954124B01229A62104B180000F010FAA7
:10137000031E01D000F0AEF83B1D00221A603B1D99
:10138000802252015A603B1D802252059A603A1D0C
:10139000064B1100180000F073FC031E01D000F092
:1013A00099F8C046BD4604B080BDC0462800002064
:1013B0000024014080B582B000AF174BDA69164BAC
:1013C00010210A43DA61144BDB69102213407B6061
:1013D0007B68124B124A1A60104B00225A600F4B66
:1013E00000229A600D4B0A22DA600C4B00229A61AF
:1013F0000A4B180001F026FD031E01D000F06AF828
:1014000000220121112000F01FFF112000F031FF08
:10141000C046BD4602B080BD0010024068000020FA
:101420000010004090B589B000AF0C243B191800A3
:1014300014231A00002101F04BFF244B5A69234B5F
:10144000802189020A435A61204B5A6980239B02FA
:101450001340BB60BB681D4B5A691C4B8021C902FD
:101460000A435A61194B5A698023DB0213407B609F
:101470007B68174B0022C021180001F087F83B1948
:10148000C0221A603B1901225A603B1900229A605F
:101490003B190322DA603B190D4A1900100000F0D5
:1014A00005FF21007B1801221A607B1803225A6075
:1014B0007B1800229A607A189023DB05110018002F
:1014C00000F0F4FEC046BD4609B090BD00100240D9
:1014D0000004004880B500AF72B6C046C046FDE7C4
:1014E00080B582B000AF0F4B9A690E4B01210A43C1
:1014F0009A610C4B9B69012213407B607B68094B0E
:10150000DA69084B802149050A43DA61054BDA693B
:1015100080235B0513403B603B68C046BD4602B07C
:1015200080BDC0460010024090B58BB000AF78601F
:1015300014243B19180014231A00002101F0C8FEDE
:101540007B681B68194A93422BD1194B9A69184B37
:10155000802189000A439A61154B9A6980239B0078
:1015600013403B613B69124B5A69114B8021890240
:101570000A435A610E4B5A6980239B021340FB6059
:10158000FB683B1901221A603B1903225A603B1980
:1015900000229A603A199023DB051100180000F030
:1015A00085FEC046BD460BB090BDC046002401403C
:1015B0000010024080B584B000AF78607B681B6883
:1015C000094A93420BD1094BDA69084B10210A43AF
:1015D000DA61064BDB6910221340FB60FB68C046F2
:1015E000BD4604B080BDC04600100040001002405F
:1015F00080B500AFC046FDE780B500AFC046FDE74F
:1016000080B500AFC046BD4680BD80B500AFC046C6
:10161000BD4680BD80B500AF00F07AF8C046BD463B
:1016200080BD80B500AFC046BD4680BD0D48854633
:10163000FFF7F7FF0C480D490D4A002302E0D4588C
:10164000C4500433C4188C42F9D30A4A0A4C00230C
:1016500001E013600432A242FBD301F041FEFFF728
:10166000DBFDFEE700200020000000200C00002031
:10167000003400080C000020C0000020FEE700003D
:1016800080B500AF074B1A68064B10210A431A6059
:10169000032000F009F8FFF723FF00231800BD46E0
:1016A00080BDC0460020024090B583B000AF786096
:1016B000144B1C68144B1B781900FA239800FEF792
:1016C00023FD030019002000FEF71EFD0300180093
:1016D00000F0DFFD031E01D001230FE07B68032B28
:1016E0000BD8796801235B420022180000F0ACFDA2
:1016F000064B7A681A60002300E001231800BD46FB
:1017000003B090BD0000002008000020040000206D
:1017100080B500AF054B1B781A00054B1B68D2182B
:10172000034B1A60C046BD4680BDC046080000207D
:10173000BC00002080B500AF024B1B681800BD46FE
:1017400080BDC046BC00002080B584B000AF78608A
:10175000FFF7F0FF0300BB607B68FB60FB680133B1
:1017600005D00A4B1B781A00FB689B18FB60C0462B
:10177000FFF7E0FF0200BB68D31AFA689A42F7D875
:10178000C046C046BD4604B080BDC046080000202B
:1017900080B584B000AF78600F23FB1800221A7068
:1017A0000023BB607B68002B01D1012325E17B680E
:1017B0009B6B002B0AD17B680022DA637B683422A2
:1017C000002199547B681800FFF7AEFE7B689B6B85
:1017D0001022134000D003E10F23FB181B78002BCD
:1017E00000D0FDE07B681B689B680422134000D09A
:1017F000F6E07B689B6B834A134002221A437B68A6
:101800009A637B681B689B6803221340012B12D1EB
:101810007B681B681B6801221340012B09D07B6881
:101820001B68DA6880231B021A4080231B029A423D
:1018300001D1012300E00023002B16D17B681B6837
:10184000DB681822934319007B689A687B681B68E1
:101850000A43DA607B681B681B699B0099087B68F8
:101860005A687B681B680A431A617B681B68DA68E0
:101870007B681B6864490A40DA607B681B7E9A03B8
:101880007B685B7EDB031A437B689B7E5B031A43AA
:101890007B689B6A012B02D080235B0100E0002360
:1018A0001A437B68DB681A437B681B69022B01D1F2
:1018B000042300E000231A437B6824215B5C5B0067
:1018C0001343BA681343BB607B68DB7E012B15D1E1
:1018D0007B689B7E002B05D1BB688022520213439C
:1018E000BB600BE07B689B6B20221A437B689A638A
:1018F0007B68DB6B01221A437B68DA637B68DA69F9
:10190000C223FF339A4207D07B68DA697B681B6A7F
:101910001343BA681343BB607B681B68D9687B6854
:101920001B68BA680A43DA607B68DA6A80235B0561
:101930009A421BD07B68DB6A012B17D07B68DB6A7D
:10194000022B13D07B68DB6A032B0FD07B68DB6A2A
:10195000042B0BD07B68DB6A052B07D07B68DB6A26
:10196000062B03D07B68DB6A072B12D17B681B68D0
:101970005A697B681B6807218A435A617B681B6828
:1019800059697B68DB6A07221A407B681B680A4337
:101990005A617B681B68DB681C4A1340BA689A422C
:1019A0000BD17B680022DA637B689B6B0322934335
:1019B00001221A437B689A631CE07B689B6B1222AE
:1019C000934310221A437B689A637B68DB6B012286
:1019D0001A437B68DA630F23FB1801221A7009E0AF
:1019E0007B689B6B10221A437B689A630F23FB185A
:1019F00001221A700F23FB181B781800BD4604B093
:101A000080BDC046FDFEFFFF1902FEFFE7FF3F83DA
:101A100090B585B000AF78600F23FB1800221A70D4
:101A20007B681B689B680422134038D17B68342292
:101A30009B5C012B01D1022338E07B683422012119
:101A400099547B685B7E012B07D00F23FC187B68C1
:101A5000180000F00BFA030023700F23FB181B780B
:101A6000002B20D17B689B6B124A134080225200CE
:101A70001A437B689A637B680022DA637B683422AE
:101A8000002199547B681B681C221A607B681B68C4
:101A90009A687B681B6804210A439A6003E00F235D
:101AA000FB1802221A700F23FB181B781800BD4682
:101AB00005B090BDFEF0FFFFB0B584B000AF786018
:101AC0000F23FB1800221A707B6834229B5C012BC9
:101AD00001D1022329E07B683422012199540F258A
:101AE0007C197B68180000F0B6FA030023707B199C
:101AF0001B78002B12D17C197B68180000F03AFA91
:101B0000030023707B191B78002B07D17B689B6B2C
:101B1000084A134001221A437B689A637B68342287
:101B2000002199540F23FB181B781800BD4604B000
:101B3000B0BDC046FEFEFFFF80B584B000AF786048
:101B400039607B685B69082B02D10823FB6014E0D5
:101B50007B681B68DB6801221340012B0BD17B687B
:101B60009B6B20221A437B689A637B683422002196
:101B70009954012371E00C23FB60FFF7DBFD0300A8
:101B8000BB601FE03B6801331CD03B68002B07D0D3
:101B9000FFF7D0FD0200BB68D31A3A689A4211D20F
:101BA0007B681B681B68FA6813400BD17B689B6BD2
:101BB00004221A437B689A637B683422002199547B
:101BC00003234AE07B681B681B68FA681340D9D07E
:101BD0007B689B6B802292001A437B689A637B68C8
:101BE0001B68DA68C0231B0113402DD17B689B7EE4
:101BF000002B29D17B681B681B6808221340082B27
:101C000022D17B681B689B680422134010D17B683B
:101C10001B685A687B681B680C218A435A607B6882
:101C20009B6B104A134001221A437B689A630BE0B6
:101C30007B689B6B20221A437B689A637B68DB6B13
:101C400001221A437B68DA637B681B7E002B03D179
:101C50007B681B680C221A6000231800BD4604B084
:101C600080BDC046FEFEFFFF80B582B000AF786049
:101C70007B681B681B6C1800BD4602B080BD00006D
:101C800080B584B000AF786039600F23FB18002264
:101C90001A700023BB607B68DA6A80235B059A4276
:101CA00011D07B68DB6A012B0DD07B68DB6A022BCD
:101CB00009D07B68DB6A032B05D07B68DB6A042BC9
:101CC00001D07B68DB6A7B6834229B5C012B01D1ED
:101CD0000223BBE07B683422012199547B681B6896
:101CE0009B680422134000D09FE03B685B68594A20
:101CF000934200D177E07B681B68996A3B681B6858
:101D000001229A407B681B680A439A627B68DA6A00
:101D100080235B059A4237D07B68DB6A012B33D086
:101D20007B68DB6A022B2FD07B68DB6A032B2BD00E
:101D30007B68DB6A042B27D07B68DB6A052B23D00A
:101D40007B68DB6A062B1FD07B68DB6A072B1BD006
:101D50003B689A687B681B685B6907210B409A4265
:101D600012D07B681B685A697B681B6807218A430D
:101D70005A617B681B6859693B689B6807221A4057
:101D80007B681B680A435A613B681B68102B03D0B1
:101D90003B681B68112B52D12F4B19683B681B689D
:101DA000102B02D180231B0401E08023DB032A4A8D
:101DB0000B4313603B681B68102B40D1274B1B68FB
:101DC00027491800FEF7A0F903001A0013009B0032
:101DD0009B185B00BB6002E0BB68013BBB60BB685B
:101DE000002BF9D12BE07B681B689A6A3B681B6863
:101DF000012199400B00D9437B681B680A409A6215
:101E00003B681B68102B03D03B681B68112B16D155
:101E1000114B19683B681B68102B01D1114A00E077
:101E2000114A0D4B0A401A6009E07B689B6B202227
:101E30001A437B689A630F23FB1801221A707B6890
:101E40003422002199540F23FB181B781800BD463B
:101E500004B080BD011000000827014000000020F0
:101E600040420F00FFFF7FFFFFFFBFFF80B584B040
:101E700000AF78600023FB600023BB607B681B68B9
:101E80009B6803221340012B12D17B681B681B68DF
:101E900001221340012B09D07B681B68DA6880237C
:101EA0001B021A4080231B029A4201D1012300E049
:101EB0000023002B52D17B681B689B682A4A134081
:101EC0000DD07B689B6B10221A437B689A637B68FA
:101ED000DB6B01221A437B68DA6301233FE07B68F6
:101EE0001B689A687B681B6801210A439A601F4B34
:101EF0001B681F491800FEF707F90300BB6002E0EA
:101F0000BB68013BBB60BB68002BF9D1FFF712FC3B
:101F10000300FB601BE0FFF70DFC0200FB68D31A17
:101F2000022B14D97B681B681B6801221340012B0C
:101F30000DD07B689B6B10221A437B689A637B6889
:101F4000DB6B01221A437B68DA63012307E07B68BD
:101F50001B681B6801221340012BDCD100231800F1
:101F6000BD4604B080BDC0461700008000000020C0
:101F700040420F0080B584B000AF78600023FB6062
:101F80007B681B689B6803221340012B12D17B687E
:101F90001B681B6801221340012B09D07B681B685A
:101FA000DA6880231B021A4080231B029A4201D167
:101FB000012300E00023002B48D07B681B689B684E
:101FC00005221340012B10D17B681B689A687B683F
:101FD0001B6802210A439A607B681B6803221A600F
:101FE000FFF7A8FB0300FB6029E07B689B6B1022D6
:101FF0001A437B689A637B68DB6B01221A437B6818
:10200000DA63012323E0FFF795FB0200FB68D31A94
:10201000022B14D97B681B689B6801221340012B9B
:102020000DD17B689B6B10221A437B689A637B6897
:10203000DB6B01221A437B68DA63012307E07B68CC
:102040001B689B6801221340012BDCD00023180081
:10205000BD4604B080BD80B584B000AF7860002379
:10206000FB607B681B689B68042213403AD07B6846
:102070001B689B6804221340042B0DD17B681B68EE
:102080009B680222134007D17B681B689A687B68B3
:102090001B6810210A439A60FFF74CFB0300FB60AA
:1020A0001AE0FFF747FB0200FB68D31A022B13D993
:1020B0007B681B689B68042213400DD07B689B6B78
:1020C00010221A437B689A637B68DB6B01221A43F8
:1020D0007B68DA63012306E07B681B689B68042247
:1020E0001340DED100231800BD4604B080BD0000BF
:1020F00080B582B000AF0200FB1D1A70FB1D1B787B
:102100007F2B09D8FB1D1B781A001F231A40044B94
:10211000012191400A001A60C046BD4602B080BD50
:1021200000E100E090B583B000AF02003960FB1D14
:102130001A70FB1D1B787F2B28D82F4AFB1D1B789C
:102140005BB29B08C0339B009B58FA1D12781100AC
:1021500003220A40D200FF2191400A00D2431A40D4
:1021600011003B689B01FF221A40FB1D1B781800E1
:1021700003230340DB009A401F48FB1D1B785BB222
:102180009B080A43C0339B001A5031E01B4AFB1DD9
:102190001B7819000F230B40083B9B0806339B005C
:1021A000D31804331B68FA1D1278110003220A4069
:1021B000D200FF2191400A00D2431A4011003B682F
:1021C0009B01FF221A40FB1D1B78180003230340CC
:1021D000DB009A400948FB1D1B781C000F2323409D
:1021E000083B9B080A4306339B00C31804331A605C
:1021F000C046BD4603B090BD00E100E000ED00E048
:1022000080B582B000AF78607B685A1E80235B0483
:102210009A4201D3012310E00A4B7A68013A5A60CE
:1022200001235B4203211800FFF77CFF054B0022CE
:102230009A60044B07221A6000231800BD4602B0C2
:1022400080BDC04610E000E080B584B000AFB9604A
:102250007A600F217B18021C1A70BA687B181B78F1
:102260005BB211001800FFF75DFFC046BD4604B029
:1022700080BD80B582B000AF0200FB1D1A70FB1D4F
:102280001B785BB21800FFF733FFC046BD4602B0B3
:1022900080BD80B582B000AF78607B681800FFF722
:1022A000AFFF03001800BD4602B080BD80B586B008
:1022B00000AF7860396000237B614FE13B681B68A9
:1022C00001217A6991400A001340FB60FB68002BF2
:1022D00000D140E13B685B6803221340012B05D02D
:1022E0003B685B6803221340022B30D17B689B68FC
:1022F0003B617B695B0003229A401300DA433B6930
:1023000013403B613B68DA687B695B009A401300CD
:102310003A6913433B617B683A699A607B685B6802
:102320003B6101227B699A401300DA433B69134009
:102330003B613B685B681B0901221A407B699A403C
:1023400013003A6913433B617B683A695A603B6802
:102350005B6803221340032B17D07B68DB683B616B
:102360007B695B0003229A401300DA433B69134008
:102370003B613B689A687B695B009A4013003A694D
:1023800013433B617B683A69DA603B685B68032210
:102390001340022B23D17B69DA087B680832920054
:1023A000D3583B617B69072213409B000F229A4060
:1023B0001300DA433B6913403B613B681A697B6950
:1023C00007210B409B009A4013003A6913433B617D
:1023D0007B69DA087B68083292003969D1507B68E2
:1023E0001B683B617B695B0003229A401300DA4360
:1023F0003B6913403B613B685B6803221A407B6981
:102400005B009A4013003A6913433B617B683A6969
:102410001A603B685A68C0239B02134000D19AE0BF
:10242000544B9A69534B01210A439A61514B9B6962
:1024300001221340BB60BB684F4A7B699B08023393
:102440009B009B583B617B69032213409B000F223A
:102450009A401300DA433B6913403B617A6890234A
:10246000DB059A4213D07B68444A93420DD07B68C7
:10247000434A934207D07B68424A934201D10323E7
:1024800006E0052304E0022302E0012300E000232C
:102490007A6903210A40920093403A6913433B61F1
:1024A00035497B699B0802339B003A695A50364B89
:1024B0009B683B61FB68DA433B6913403B613B68C7
:1024C0005A6880235B03134003D03A69FB681343C7
:1024D0003B612D4B3A699A602B4BDB683B61FB6893
:1024E000DA433B6913403B613B685A6880239B0396
:1024F000134003D03A69FB6813433B61224B3A69AE
:10250000DA60214B5B683B61FB68DA433B6913404F
:102510003B613B685A6880239B02134003D03A69B1
:10252000FB6813433B61184B3A695A60164B1B68B2
:102530003B61FB68DA433B6913403B613B685A6887
:1025400080235B02134003D03A69FB6813433B616D
:102550000D4B3A691A607B6901337B613B681A68ED
:102560007B69DA40131E00D0A8E6C046C046BD46CF
:1025700006B080BD00100240000001400004004889
:1025800000080048000C00480004014080B582B0FB
:1025900000AF786008001100BB1C021C1A807B1C75
:1025A0000A1C1A707B1C1B78002B04D0BB1C1A88D9
:1025B0007B689A6103E0BB1C1A887B689A62C046FC
:1025C000BD4602B080BD000080B588B000AF786025
:1025D0007B68002B01D1012301E37B681B6801228A
:1025E000134000D18DE0C34B5B680C221340042BD9
:1025F0000ED0C04B5B680C221340082B16D1BD4B8C
:102600005A6880235B021A4080235B029A420DD1F4
:10261000B84B1A6880239B02134000D170E07B689E
:102620005B68002B00D06BE00123D8E27B685B681D
:10263000012B07D1AF4B1A68AE4B802149020A43E8
:102640001A602FE07B685B68002B0CD1A94B1A68DD
:10265000A84BA9490A401A60A64B1A68A54BA7497E
:102660000A401A601EE07B685B68052B0ED1A14B07
:102670001A68A04B8021C9020A431A609D4B1A6850
:102680009C4B802149020A431A600BE0994B1A685F
:10269000984B99490A401A60964B1A68954B97498E
:1026A0000A401A607B685B68002B14D0FFF742F881
:1026B0000300BB6108E0FFF73DF80200BB69D31AD5
:1026C000642B01D903238AE28A4B1A6880239B0278
:1026D0001340F0D015E0FFF72DF80300BB6108E0D0
:1026E000FFF728F80200BB69D31A642B01D9032332
:1026F00075E2804B1A6880239B021340F0D100E002
:10270000C0467B681B680222134000D169E0794B08
:102710005B680C2213400BD0764B5B680C22134095
:10272000082B1CD1734B5A6880235B02134016D1CF
:10273000704B1B680222134005D07B68DB68012BBD
:1027400001D001234BE26B4B1B68F8229343190025
:102750007B681B69DA00674B0A431A6041E07B68BB
:10276000DB68002B24D0634B1A68624B01210A43BB
:102770001A60FEF7DFFF0300BB6108E0FEF7DAFF37
:102780000200BB69D31A022B01D9032327E2594B5C
:102790001B6802221340F1D0564B1B68F82293436A
:1027A00019007B681B69DA00524B0A431A6018E073
:1027B000504B1A684F4B01218A431A60FEF7BAFF4B
:1027C0000300BB6108E0FEF7B5FF0200BB69D31A46
:1027D000022B01D9032302E2464B1B68022213405D
:1027E000F1D17B681B680822134036D07B68DB6917
:1027F000002B19D03F4B5A6A3E4B01210A435A62C3
:10280000FEF798FF0300BB6108E0FEF793FF0200AC
:10281000BB69D31A022B01D90323E0E1354B5B6A74
:1028200002221340F1D018E0324B5A6A314B012199
:102830008A435A62FEF77EFF0300BB6108E0FEF7A1
:1028400079FF0200BB69D31A022B01D90323C6E129
:10285000284B5B6A02221340F1D17B681B6804227B
:10286000134000D1B4E01F203B1800221A70214B06
:10287000DA6980235B05134010D11E4BDA691D4BCA
:10288000802149050A43DA611A4BDA6980235B0526
:102890001340FB60FB683B1801221A70184B1A6842
:1028A00080235B0013401AD1154B1A68144B80210A
:1028B00049000A431A60FEF73DFF0300BB6108E0D0
:1028C000FEF738FF0200BB69D31A642B01D903233A
:1028D00085E10B4B1A6880235B001340F0D07B68C6
:1028E0009B68012B0ED1034B1A6A024B01210A434C
:1028F0001A6235E000100240FFFFFEFFFFFFFBFF02
:10290000007000407B689B68002B0CD1B64B1A6AA4
:10291000B54B01218A431A62B34B1A6AB24B0421A8
:102920008A431A621CE07B689B68052B0CD1AE4B76
:102930001A6AAD4B04210A431A62AB4B1A6AAA4BBE
:1029400001210A431A620BE0A74B1A6AA64B012128
:102950008A431A62A44B1A6AA34B04218A431A625F
:102960007B689B68002B14D0FEF7E4FE0300BB617C
:1029700009E0FEF7DFFE0200BB69D31A9B4A9342CF
:1029800001D903232BE1984B1B6A02221340F0D09C
:1029900013E0FEF7CFFE0300BB6109E0FEF7CAFEBD
:1029A0000200BB69D31A914A934201D9032316E16D
:1029B0008D4B1B6A02221340F0D11F23FB181B789A
:1029C000012B05D1884BDA69874B89490A40DA61C6
:1029D0007B681B681022134063D07B685B69012B06
:1029E0002AD1814B5A6B804B04210A435A637E4B98
:1029F0005A6B7D4B01210A435A63FEF79BFE03008D
:102A0000BB6108E0FEF796FE0200BB69D31A022BF9
:102A100001D90323E3E0744B5B6B02221340F1D036
:102A2000714B5B6BF822934319007B689B69DA005A
:102A30006D4B0A435A6334E07B685B69053311D1FF
:102A4000694B5A6B684B04218A435A63664B5B6B34
:102A5000F822934319007B689B69DA00624B0A43B2
:102A60005A631EE0604B5A6B5F4B04210A435A6362
:102A70005D4B5A6B5C4B01218A435A63FEF75AFE49
:102A80000300BB6108E0FEF755FE0200BB69D31AE4
:102A9000022B01D90323A2E0534B5B6B02221340AC
:102AA000F1D17B681B6A002B00D197E04E4B5B682D
:102AB0000C221340082B00D16BE07B681B6A022BB1
:102AC0004CD1494B1A68484B4A490A401A60FEF7F4
:102AD00031FE0300BB6108E0FEF72CFE0200BB697B
:102AE000D31A022B01D9032379E03F4B1A688023C4
:102AF0009B041340F0D13C4BDB6A0F229343190037
:102B00007B68DA6A384B0A43DA62374B5B683A4AC9
:102B1000134019007B689A6A7B685B6A1A43324BE0
:102B20000A435A60304B1A682F4B802149040A43EC
:102B30001A60FEF7FFFD0300BB6108E0FEF7FAFD37
:102B40000200BB69D31A022B01D9032347E0264BAD
:102B50001A6880239B041340F0D03FE0224B1A6890
:102B6000214B24490A401A60FEF7E4FD0300BB61D3
:102B700008E0FEF7DFFD0200BB69D31A022B01D982
:102B800003232CE0184B1A6880239B041340F0D1D8
:102B900024E07B681B6A012B01D101231FE0124B4B
:102BA0005B687B61104BDB6A3B617A6980235B0267
:102BB0001A407B685B6A9A420ED13B690F221A4029
:102BC0007B68DB6A9A4207D17A69F0239B031A403B
:102BD0007B689B6A9A4201D0012300E00023180021
:102BE000BD4608B080BDC0460010024088130000FA
:102BF000FFFFFFEFFFFFFFFEFFFFC2FF80B584B0C6
:102C000000AF786039607B68002B01D10123B3E00D
:102C10005B4B1B68012213403A689A4211D9584B0A
:102C20001B68012293431900554B3A680A431A6006
:102C3000534B1B68012213403A689A4201D001238A
:102C40009AE07B681B680222134015D07B681B68E2
:102C50000422134006D04B4B5A684A4BE021C9006E
:102C60000A435A60474B5B68F022934319007B6824
:102C70009A68444B0A435A607B681B6801221340E0
:102C800040D07B685B68012B07D13E4B1A688023DC
:102C90009B02134014D101236EE07B685B68022B1A
:102CA00007D1384B1A6880239B04134008D10123B5
:102CB00062E0344B1B680222134001D101235BE028
:102CC000304B5B680322934319007B685A682D4B95
:102CD0000A435A60FEF72EFD0300FB6009E0FEF791
:102CE00029FD0200FB68D31A274A934201D9032326
:102CF00042E0244B5B680C221A407B685B689B00B7
:102D00009A42ECD11E4B1B68012213403A689A424A
:102D100011D21B4B1B68012293431900184B3A68D0
:102D20000A431A60164B1B68012213403A689A4204
:102D300001D0012320E07B681B680422134009D0E6
:102D4000104B5B68114A134019007B68DA680D4B21
:102D50000A435A6000F020F801000A4B5B681B0927
:102D60000F2213400A4AD35C0A00DA40094B1A606A
:102D70000320FEF799FC00231800BD4604B080BD77
:102D8000002002400010024088130000FFF8FFFFFF
:102D9000C83300080000002080B586B000AF0023D3
:102DA000FB600023BB6000237B6100237B6000236A
:102DB0003B61204B5B68FB60FB680C221340042BDB
:102DC00002D0082B03D02CE01B4B3B612CE0FB68AE
:102DD0009B0C0F221340194AD35C7B60154BDB6AB6
:102DE0000F221340164AD35CBB60FA6880235B0253
:102DF000134009D0B9681048FDF786F903001A009E
:102E00007B6853437B6109E079680A005201521ADA
:102E100093019B1ADB005B181B027B617B693B61A2
:102E200002E0054B3B61C0463B691800BD4606B059
:102E300080BDC0460010024000127A00D83300085E
:102E4000E833000880B582B000AF78607B68002B63
:102E500001D1012342E07B683D229B5CDBB2002B69
:102E600007D17B683C22002199547B681800FEF74B
:102E7000A1FB7B683D22022199547B681A687B681C
:102E800004331900100000F08FF97B6846220121FD
:102E900099547B683E22012199547B683F2201218D
:102EA00099547B684022012199547B684122012179
:102EB00099547B684222012199547B684322012165
:102EC00099547B684422012199547B684522012151
:102ED00099547B683D220121995400231800BD4676
:102EE00002B080BD80B584B000AF78607B683D22C1
:102EF0009B5CDBB2012B01D0012335E07B683D22D6
:102F0000022199547B681B68DA687B681B68012181
:102F10000A43DA607B681B68154A934209D07B68D4
:102F20001B68144A934204D07B681B68124A934280
:102F300011D17B681B689B6807221340FB60FB680C
:102F4000062B10D07B681B681A687B681B68012100
:102F50000A431A6007E07B681B681A687B681B6875
:102F600001210A431A6000231800BD4604B080BD49
:102F7000002C0140000400400040014080B584B0B6
:102F800000AF78607B681B68DB68FB607B681B6850
:102F90001B69BB60BB680222134021D0FB68022280
:102FA00013401DD07B681B68032252421A617B6864
:102FB00001221A777B681B689B690322134004D0A7
:102FC0007B68180000F0D8F807E07B68180000F074
:102FD000CBF87B68180000F0D7F87B6800221A77DE
:102FE000BB680422134022D0FB68042213401ED089
:102FF0007B681B68052252421A617B6802221A779D
:103000007B681B689A69C0239B00134004D07B68CF
:10301000180000F0B1F807E07B68180000F0A4F891
:103020007B68180000F0B0F87B6800221A77BB6854
:103030000822134021D0FB68082213401DD07B6872
:103040001B68092252421A617B6804221A777B6846
:103050001B68DB690322134004D07B68180000F072
:103060008BF807E07B68180000F07EF87B6818009A
:1030700000F08AF87B6800221A77BB6810221340A0
:1030800022D0FB68102213401ED07B681B681122DF
:1030900052421A617B6808221A777B681B68DA69DA
:1030A000C0239B00134004D07B68180000F064F834
:1030B00007E07B68180000F057F87B68180000F004
:1030C00063F87B6800221A77BB68012213400CD09A
:1030D000FB680122134008D07B681B680222524221
:1030E0001A617B68180000F037F8BB688022134033
:1030F0000CD0FB688022134008D07B681B688122BB
:1031000052421A617B68180000F0DAF8BB6840226E
:1031100013400CD0FB684022134008D07B681B682A
:10312000412252421A617B68180000F035F8BB68F2
:10313000202213400CD0FB682022134008D07B686B
:103140001B68212252421A617B68180000F0B0F817
:10315000C046BD4604B080BD80B582B000AF786087
:10316000C046BD4602B080BD80B582B000AF786079
:10317000C046BD4602B080BD80B582B000AF786069
:10318000C046BD4602B080BD80B582B000AF786059
:10319000C046BD4602B080BD80B582B000AF786049
:1031A000C046BD4602B080BD80B584B000AF786037
:1031B00039607B681B68FB607B68364A934203D0AA
:1031C0007B68354A934208D1FB6870229343FB60C9
:1031D0003B685B68FA681343FB607B682D4A934247
:1031E00013D07B682C4A93420FD07B682B4A9342C2
:1031F0000BD07B682A4A934207D07B68294A9342C6
:1032000003D07B68284A934208D1FB68274A1340C1
:10321000FB603B68DB68FA681343FB60FB68802255
:1032200093431A003B685B691343FB607B68FA6851
:103230001A603B689A687B68DA623B681A687B6848
:103240009A627B68134A93420BD07B68144A93427C
:1032500007D07B68134A934203D07B68124A93429B
:1032600003D13B681A697B681A637B6801225A6143
:103270007B681B6901221340012B06D17B681B6907
:10328000012293431A007B681A61C046BD4604B010
:1032900080BDC046002C01400004004000200040DA
:1032A000004001400044014000480140FFFCFFFF96
:1032B00080B582B000AF7860C046BD4602B080BD28
:1032C00080B582B000AF7860C046BD4602B080BD18
:1032D00003008218934200D1704719700133F9E757
:1032E00070B500260C4C0D4D641BA410A64209D1EC
:1032F000002600F019F80A4C0A4D641BA410A642DF
:1033000005D170BDB300EB5898470136EEE7B30026
:10331000EB5898470136F2E7F8330008F833000815
:10332000FC330008F8330008F8B5C046F8BC08BC08
:103330009E467047F8B5C046F8BC08BC9E4670472C
:10334000E603000812030008FC02000878030008E6
:10335000FC020008AC030008FC0200087803000827
:103360001203000812030008AC03000878030008E9
:10337000E8020008E8020008E8020008B6030008B6
:103380001203000812030008FC020008520400089F
:10339000FC020008AC030008FC020008520400080C
:1033A0001203000812030008AC03000852040008CE
:1033B000E8020008E8020008E80200083F065B4F48
:1033C000666D7D077F6F00000000000000000000B8
:1033D0000102030406070809020304050607080999
:1033E0000A0B0C0D0E0F101001020304050607084E
:0833F000090A0B0C0D0E0F1071
:0433F800E9000008E0
:0433FC00C100000804
:0C34000000127A0004000000010000002F
:040000050800162DAC
:00000001FF
