:020000040800F2
:1000000000200020E50B00088D0B0008950B000870
:1000100000000000000000000000000000000000E0
:100020000000000000000000000000009D0B000820
:100030000000000000000000A70B0008B10B000842
:10004000350C000800000000350C0008350C0008D5
:10005000350C0008350C0008350C0008350C00087C
:1000600000000000350C0008350C0008350C0008B5
:10007000350C0008350C0008350C000800000000A5
:10008000350C0008350C000800000000350C000895
:10009000350C0008350C0008350C0008350C00083C
:1000A000350C0008350C0008350C0008C10B0008A1
:1000B000350C0008000000000000000000000000F7
:1000C00010B5064C2378002B07D1054B002B02D02E
:1000D000044800E000BF0123237010BD1000002081
:1000E0000000000068320008044B10B5002B03D05C
:1000F0000349044800E000BF10BDC04600000000F6
:100100001400002068320008002243088B4274D398
:1001100003098B425FD3030A8B4244D3030B8B4208
:1001200028D3030C8B420DD3FF22090212BA030C11
:100130008B4202D31212090265D0030B8B4219D3F2
:1001400000E0090AC30B8B4201D3CB03C01A524112
:10015000830B8B4201D38B03C01A5241430B8B425A
:1001600001D34B03C01A5241030B8B4201D30B0343
:10017000C01A5241C30A8B4201D3CB02C01A52416A
:10018000830A8B4201D38B02C01A5241430A8B422D
:1001900001D34B02C01A5241030A8B4201D30B0216
:1001A000C01A5241CDD2C3098B4201D3CB01C01A30
:1001B000524183098B4201D38B01C01A524143093A
:1001C0008B4201D34B01C01A524103098B4201D328
:1001D0000B01C01A5241C3088B4201D3CB00C01A95
:1001E000524183088B4201D38B00C01A524143080D
:1001F0008B4201D34B00C01A5241411A00D2014632
:10020000524110467047FFE701B5002000F006F8A4
:1002100002BDC0460029F7D076E770477047C04658
:1002200080B500AF00F008FD00F032F800F0C2F831
:1002300000F090F800F08CFA642000F061FD00F00E
:10024000F3F80A2000F05CFD00F08EFA00F038FAB6
:10025000322000F055FD00F093FA0B490B4B0122C0
:10026000180001F07AFE00F097FA642000F048FDD3
:1002700000F09EFA00F06CFA00F0FAF90A2000F0A3
:100280003FFDC046F6E7C046B80000202C00002025
:1002900090B595B000AF20243B19180030231A0008
:1002A000002102F0B5FF1023FB18180010231A00DC
:1002B000002102F0ADFF3B00180010231A000021BE
:1002C00002F0A6FF21007B1802221A607B1801228F
:1002D000DA607B1810221A617B1802221A627B18DE
:1002E00000225A627B18A02292039A627B18002295
:1002F000DA627B18180001F011F8031E01D000F03B
:10030000C5FB10217B1807221A607B1802225A6055
:100310007B1800229A607B180022DA607B1801218A
:10032000180001F015FB031E01D000F0AFFB3B00ED
:1003300001221A603B0000229A603B00180001F085
:100340004BFC031E01D000F0A1FBC046BD4615B01A
:1003500090BD000080B500AF144B154A1A60134BD6
:10036000962292015A60114B00229A600F4B002294
:10037000DA600E4B00221A610C4B0C225A610B4BB7
:1003800000229A61094B0022DA61084B00221A62AE
:10039000064B00225A62054B180001F0EBFC031ECD
:1003A00001D000F073FBC046BD4680BD2C0000208C
:1003B0000038014080B586B000AF3B1D1800142303
:1003C0001A00002102F024FF154B5A69144B8021BA
:1003D00089020A435A61124B5A6980239B021340D7
:1003E0003B603B680F499023DB050022180000F0BA
:1003F00077FF3B1D0B4A1A603B1D01225A603B1DD3
:1004000000229A603B1D0022DA603A1D9023DB0532
:100410001100180000F0F4FDC046BD4606B080BDD6
:1004200000100240B710000080B500AF9023DB053C
:1004300001221021180000F053FF9023DB05002259
:100440002021180000F04CFF9023DB0500228021C2
:10045000180000F045FFC046BD4680BD80B584B0A1
:1004600000AF02003960FB1D1A700023FB60FB1D0A
:100470001B780F221340FA681343FB60FB681022BD
:100480001343FB603B685B012F4A1340FA68134338
:10049000FB609023DB0500221021180000F020FFF4
:1004A000012000F02DFC0B23FB1800221A702AE01B
:1004B0009023DB0500222021180000F011FF01200D
:1004C00000F01EFCFB68DBB201221340DAB290237D
:1004D000DB058021180000F003FF012000F010FC74
:1004E0009023DB0501222021180000F0F9FE0120F5
:1004F00000F006FCFB685B08FB600B217B181A7898
:100500007B1801321A700B23FB181B78182BCFD9DC
:100510009023DB0501221021180000F0E1FE90235A
:10052000DB0500222021180000F0DAFE9023DB0515
:1005300000228021180000F0D3FE012000F0E0FB33
:10054000C046BD4604B080BDE0FFFF0180B500AFEE
:1005500000210720FFF782FF0A2000F0D1FBC046F0
:10056000BD4680BD80B500AFFFF7F0FF052000F06D
:10057000C7FB054B19000720FFF770FF0A2000F0AA
:10058000BFFBC046BD4680BDBD4F000080B500AF7B
:1005900000210F20FFF762FF052000F0B1FBC046ED
:1005A000BD4680BD80B586B000AF0200BB1D1A807D
:1005B000BB1D1B88284A934208D9BB1D1B889AB2D1
:1005C00026498A4200D9254B9AB200E0244ABB1D35
:1005D0001A80BB1D1A8813005B019B1A9B009B1895
:1005E000DB007B617B6928211800FFF78DFD03008C
:1005F0007B617B699B093B617B693F221340FB6008
:100600000023BB603B69DB01FA681343BB60BB6836
:1006100019000120FFF722FF0A2000F071FB114BA7
:1006200019000320FFF71AFF0F4BBA1D12881A801A
:1006300000F05CFB0300F533FF331A000B4B1A602C
:1006400000F092F8322000F05BFB00F099F8C04611
:10065000BD4606B080BDC0460C160000391700002C
:100660000D160000D7FF000000000020B40000209D
:1006700080B500AF0A4B1B68002B0ED000F036FB94
:100680000200074B1B689A4208D3FFF76BFF00F08C
:100690009BF8034B00221A6000E0C046BD4680BDB7
:1006A000B400002080B582B000AF00237B607B687F
:1006B000DBB207221340DBB21800BD4602B080BD9A
:1006C00080B500AFFA23DB00180000F019FB02E050
:1006D0000A2000F015FBFFF7E5FF0300012BF7D020
:1006E00000F042F8322000F00BFB00F049F800F077
:1006F0003BF8322000F004FB00F042F8FFF746FF21
:10070000FA23DB00180000F0FBFA00F02DF832208D
:1007100000F0F6FA00F034F800F026F8322000F08D
:10072000EFFA00F02DF8094B1800FFF73BFFFA2312
:10073000DB00180000F0E4FA00F016F8322000F0B8
:10074000DFFA00F01DF8C046BD4680BDE916000086
:1007500080B500AF9023DB0501220121180000F0D5
:10076000BFFDC046BD4680BD80B500AF9023DB0510
:1007700001220221180000F0B3FDC046BD4680BD35
:1007800080B500AF9023DB0500220221180000F0A5
:10079000A7FDC046BD4680BD80B500AF9023DB05F8
:1007A00001220421180000F09BFDC046BD4680BD1B
:1007B00080B500AF9023DB0500220421180000F073
:1007C0008FFDC046BD4680BD80B500AF8023590176
:1007D0009023DB050122180000F082FDC046BD46D3
:1007E00080BD000090B58BB000AF0200FB1D1A70F9
:1007F000BB1D0A1C1A701823FB18184A13CA13C30E
:1008000012681A600823FB18154A13CA13C312682A
:100810001A60FB1D1B78072B02D9FB1D00221A70E2
:10082000BB1D1B78072B02D9BB1D00221A70FB1DB4
:100830001A781823FB185200D25ABB1D1B789BB2A2
:10084000F91D0878082179184000415A4B439BB2A2
:10085000D3189BB21800BD460BB090BD8032000883
:1008600090320008B0B586B000AF78600A00FB1C7B
:100870001A70FB1C1B78002B00D1A3E07B681B784F
:10088000532B00D180E000DD9EE0502B5AD000DDDC
:100890009AE0432B2FD0462B00D095E0FB1C1B7811
:1008A000022B00D892E07B6801331B781AB27B6878
:1008B00002331B781BB21B021BB213431AB2142162
:1008C0007B181A807B181B88444A934200D87DE02D
:1008D0007B181B88424A934200D977E07B181B881B
:1008E0001800FFF75FFEFFF757FF142000F008FA2B
:1008F000FFF75EFF6AE0FB1C1B78022B68D913210F
:100900007B187A6852781A7012203B187A689278AD
:100910001A7010257C193B181A787B181B78110067
:100920001800FFF75FFF030023807B191B88180066
:10093000FFF738FEFFF730FF142000F0E1F9FFF772
:1009400037FF45E0FB1C1B78012B43D917243B19CB
:100950007A6852781A70FFF7F9FD0A2000F0D0F992
:100960003B191B78002B05D11E4B19000720FFF700
:1009700075FD01E0FFF7F6FDFFF70EFF142000F014
:10098000BFF9FFF715FF25E00C217B1846221A70EE
:10099000154B1B88DAB27B185A70134B1B881B0A45
:1009A0009BB2DAB27B189A7079181048642303223C
:1009B00001F034FAFFF7F0FE142000F0A1F9FFF780
:1009C000F7FE08E0C04606E0C04604E0C04602E08C
:1009D000C04600E0C046BD4606B0B0BD0C160000E3
:1009E000391700003F0F0000000000202C000020FD
:1009F00080B584B000AF78607B681B681F4A934263
:100A000037D11F4B1B7819000F203B181D4A525C31
:100A10001A700200BB181B780A2B03D0BB181B7876
:100A20000D2B0ED1164B1B78002B06D0144B1A78C9
:100A3000144B11001800FFF715FF114B00221A701C
:100A40000DE00F4B1B781E2B06D80D4B1B78013386
:100A5000DAB20B4B1A7002E0094B00221A70084BF5
:100A60001B781A00074BD118074B0122180001F020
:100A700074FAC046BD4604B080BDC046003801408F
:100A8000D8000020B80000202C00002080B500AF66
:100A900072B6C046C046FDE780B582B000AF0F4BCE
:100AA0009A690E4B01210A439A610C4B9B69012202
:100AB00013407B607B68094BDA69084B802149054C
:100AC0000A43DA61054BDA6980235B0513403B601A
:100AD0003B68C046BD4602B080BDC0460010024023
:100AE00090B58BB000AF786014243B191800142324
:100AF0001A00002102F08CFB7B681B68214A93429C
:100B00003BD1214B9A69204B8021C9010A439A614C
:100B10001D4B9A698023DB0113403B613B691A4BF3
:100B20005A69194B802189020A435A61164B5A6946
:100B300080239B021340FB60FB683B19C022D2005C
:100B40001A6021007B1802225A607B1800229A60EA
:100B50007B180322DA607B1801221A617A1890232D
:100B6000DB051100180000F04BFA002200211B20C9
:100B700000F096F91B2000F0A8F9C046BD460BB066
:100B800090BDC046003801400010024080B500AF63
:100B9000C046FDE780B500AFC046FDE780B500AFB9
:100BA000C046BD4680BD80B500AFC046BD4680BDD5
:100BB00080B500AF00F088F8C046BD4680BD00009B
:100BC00080B500AF034B180001F01EFAC046BD46C9
:100BD00080BDC0462C00002080B500AFC046BD4699
:100BE00080BD00000D488546FFF7F6FF0C480D4913
:100BF0000D4A002302E0D458C4500433C4188C4278
:100C0000F9D30A4A0A4C002301E013600432A242DD
:100C1000FBD302F005FBFFF703FBFEE700200020FB
:100C20000000002010000020E0320008100000202A
:100C3000E0000020FEE7000080B500AF074B1A6817
:100C4000064B10210A431A60032000F009F8FFF751
:100C500023FF00231800BD4680BDC046002002408F
:100C600090B583B000AF7860144B1C68144B1B78B0
:100C70001900FA239800FFF747FA03001900200033
:100C8000FFF742FA0300180000F02FF9031E01D00D
:100C900001230FE07B68032B0BD8796801235B42AB
:100CA0000022180000F0FCF8064B7A681A60002356
:100CB00000E001231800BD4603B090BD04000020F1
:100CC0000C0000200800002080B500AF054B1B7809
:100CD0001A00054B1B68D218034B1A60C046BD466C
:100CE00080BDC0460C000020DC00002080B500AFB5
:100CF000024B1B681800BD4680BDC046DC000020CA
:100D000080B584B000AF7860FFF7F0FF0300BB60F0
:100D10007B68FB60FB68013305D00A4B1B781A0027
:100D2000FB689B18FB60C046FFF7E0FF0200BB6852
:100D3000D31AFA689A42F7D8C046C046BD4604B0F6
:100D400080BDC0460C00002080B582B000AF02001C
:100D5000FB1D1A70FB1D1B787F2B09D8FB1D1B7810
:100D60001A001F231A40044B012191400A001A6007
:100D7000C046BD4602B080BD00E100E090B583B042
:100D800000AF02003960FB1D1A70FB1D1B787F2B22
:100D900028D82F4AFB1D1B785BB29B08C0339B00F1
:100DA0009B58FA1D1278110003220A40D200FF213D
:100DB00091400A00D2431A4011003B689B01FF2278
:100DC0001A40FB1D1B78180003230340DB009A40E8
:100DD0001F48FB1D1B785BB29B080A43C0339B0076
:100DE0001A5031E01B4AFB1D1B7819000F230B40E2
:100DF000083B9B0806339B00D31804331B68FA1D7D
:100E00001278110003220A40D200FF2191400A000B
:100E1000D2431A4011003B689B01FF221A40FB1D80
:100E20001B78180003230340DB009A400948FB1D90
:100E30001B781C000F232340083B9B080A43063302
:100E40009B00C31804331A60C046BD4603B090BD72
:100E500000E100E000ED00E080B582B000AF786016
:100E60007B685A1E80235B049A4201D3012310E061
:100E70000A4B7A68013A5A6001235B420321180049
:100E8000FFF77CFF054B00229A60044B07221A6093
:100E900000231800BD4602B080BDC04610E000E04F
:100EA00080B584B000AFB9607A600F217B18021C56
:100EB0001A70BA687B181B785BB211001800FFF734
:100EC0005DFFC046BD4604B080BD80B582B000AFB6
:100ED0000200FB1D1A70FB1D1B785BB21800FFF7A8
:100EE00033FFC046BD4602B080BD80B582B000AFC2
:100EF00078607B681800FFF7AFFF03001800BD465D
:100F000002B080BD80B582B000AF78607B682122DE
:100F10009B5CDBB2022B08D07B6804229A637B685F
:100F2000202200219954012320E07B681B681A6865
:100F30007B681B680E218A431A607B681B681A68ED
:100F40007B681B6801218A431A607B681A6C7B6886
:100F5000DB6B012191400A005A607B68212201214C
:100F600099547B6820220021995400231800BD4623
:100F700002B080BD80B584B000AF78600F217B18CF
:100F800000221A707B6821229B5CDBB2022B06D008
:100F90007B6804229A637B1801221A7028E07B6820
:100FA0001B681A687B681B680E218A431A607B687D
:100FB0001B681A687B681B6801218A431A607B687A
:100FC0001A6C7B68DB6B012191400A005A607B68D8
:100FD0002122012199547B682022002199547B68A9
:100FE0005B6B002B04D07B685B6B7A6810009847C2
:100FF0000F23FB181B781800BD4604B080BD00000D
:1010000080B586B000AF7860396000237B614FE126
:101010003B681B6801217A6991400A001340FB601C
:10102000FB68002B00D140E13B685B680322134062
:10103000012B05D03B685B6803221340022B30D1A3
:101040007B689B683B617B695B0003229A401300CD
:10105000DA433B6913403B613B68DA687B695B00BC
:101060009A4013003A6913433B617B683A699A607E
:101070007B685B683B6101227B699A401300DA431D
:101080003B6913403B613B685B681B0901221A40C6
:101090007B699A4013003A6913433B617B683A6964
:1010A0005A603B685B6803221340032B17D07B68B0
:1010B000DB683B617B695B0003229A401300DA43E3
:1010C0003B6913403B613B689A687B695B009A40CF
:1010D00013003A6913433B617B683A69DA603B6805
:1010E0005B6803221340022B23D17B69DA087B68FB
:1010F00008329200D3583B617B69072213409B0062
:101100000F229A401300DA433B6913403B613B686E
:101110001A697B6907210B409B009A4013003A69CA
:1011200013433B617B69DA087B68083292003969B6
:10113000D1507B681B683B617B695B0003229A404E
:101140001300DA433B6913403B613B685B68032251
:101150001A407B695B009A4013003A6913433B6174
:101160007B683A691A603B685A68C0239B02134047
:1011700000D19AE0544B9A69534B01210A439A617A
:10118000514B9B6901221340BB60BB684F4A7B698E
:101190009B0802339B009B583B617B6903221340F1
:1011A0009B000F229A401300DA433B6913403B61D6
:1011B0007A689023DB059A4213D07B68444A9342B5
:1011C0000DD07B68434A934207D07B68424A9342E2
:1011D00001D1032306E0052304E0022302E00123FA
:1011E00000E000237A6903210A40920093403A69A3
:1011F00013433B6135497B699B0802339B003A6985
:101200005A50364B9B683B61FB68DA433B6913409D
:101210003B613B685A6880235B03134003D03A6903
:10122000FB6813433B612D4B3A699A602B4BDB689B
:101230003B61FB68DA433B6913403B613B685A689A
:1012400080239B03134003D03A69FB6813433B613F
:10125000224B3A69DA60214B5B683B61FB68DA43F9
:101260003B6913403B613B685A6880239B021340F3
:1012700003D03A69FB6813433B61184B3A695A60E3
:10128000164B1B683B61FB68DA433B6913403B61CB
:101290003B685A6880235B02134003D03A69FB68BD
:1012A00013433B610D4B3A691A607B6901337B61E3
:1012B0003B681A687B69DA40131E00D0A8E6C04676
:1012C000C046BD4606B080BD00100240000001408F
:1012D0000004004800080048000C004800040140D9
:1012E00080B582B000AF786008001100BB1C021C02
:1012F0001A807B1C0A1C1A707B1C1B78002B04D0E4
:10130000BB1C1A887B689A6103E0BB1C1A887B6847
:101310009A62C046BD4602B080BD000080B588B06C
:1013200000AF78607B68002B01D1012301E37B686B
:101330001B680122134000D18DE0C34B5B680C2277
:101340001340042B0ED0C04B5B680C221340082BBB
:1013500016D1BD4B5A6880235B021A4080235B0282
:101360009A420DD1B84B1A6880239B02134000D1DA
:1013700070E07B685B68002B00D06BE00123D8E253
:101380007B685B68012B07D1AF4B1A68AE4B80219D
:1013900049020A431A602FE07B685B68002B0CD17E
:1013A000A94B1A68A84BA9490A401A60A64B1A68AB
:1013B000A54BA7490A401A601EE07B685B68052BB5
:1013C0000ED1A14B1A68A04B8021C9020A431A60B2
:1013D0009D4B1A689C4B802149020A431A600BE01E
:1013E000994B1A68984B99490A401A60964B1A68AB
:1013F000954B97490A401A607B685B68002B14D0B4
:10140000FFF774FC0300BB6108E0FFF76FFC02000C
:10141000BB69D31A642B01D903238AE28A4B1A6869
:1014200080239B021340F0D015E0FFF75FFC030020
:10143000BB6108E0FFF75AFC0200BB69D31A642BBA
:1014400001D9032375E2804B1A6880239B02134065
:10145000F0D100E0C0467B681B680222134000D137
:1014600069E0794B5B680C2213400BD0764B5B68CC
:101470000C221340082B1CD1734B5A6880235B024B
:10148000134016D1704B1B680222134005D07B68B5
:10149000DB68012B01D001234BE26B4B1B68F82268
:1014A000934319007B681B69DA00674B0A431A6093
:1014B00041E07B68DB68002B24D0634B1A68624BE9
:1014C00001210A431A60FFF711FC0300BB6108E029
:1014D000FFF70CFC0200BB69D31A022B01D90323CE
:1014E00027E2594B1B6802221340F1D0564B1B6870
:1014F000F822934319007B681B69DA00524B0A43B8
:101500001A6018E0504B1A684F4B01218A431A6049
:10151000FFF7ECFB0300BB6108E0FFF7E7FB02000D
:10152000BB69D31A022B01D9032302E2464B1B6885
:1015300002221340F1D17B681B680822134036D089
:101540007B68DB69002B19D03F4B5A6A3E4B012167
:101550000A435A62FFF7CAFB0300BB6108E0FFF7CA
:10156000C5FB0200BB69D31A022B01D90323E0E1BA
:10157000354B5B6A02221340F1D018E0324B5A6AB5
:10158000314B01218A435A62FFF7B0FB0300BB6174
:1015900008E0FFF7ABFB0200BB69D31A022B01D9AD
:1015A0000323C6E1284B5B6A02221340F1D17B681A
:1015B0001B680422134000D1B4E01F203B18002216
:1015C0001A70214BDA6980235B05134010D11E4B42
:1015D000DA691D4B802149050A43DA611A4BDA6941
:1015E00080235B051340FB60FB683B1801221A70E7
:1015F000184B1A6880235B0013401AD1154B1A68E8
:10160000144B802149000A431A60FFF76FFB030067
:10161000BB6108E0FFF76AFB0200BB69D31A642BC9
:1016200001D9032385E10B4B1A6880235B0013402B
:10163000F0D07B689B68012B0ED1034B1A6A024BDA
:1016400001210A431A6235E000100240FFFFFEFF4D
:10165000FFFFFBFF007000407B689B68002B0CD1F4
:10166000B64B1A6AB54B01218A431A62B34B1A6A08
:10167000B24B04218A431A621CE07B689B68052BED
:101680000CD1AE4B1A6AAD4B04210A431A62AB4B24
:101690001A6AAA4B01210A431A620BE0A74B1A6A85
:1016A000A64B01218A431A62A44B1A6AA34B042158
:1016B0008A431A627B689B68002B14D0FFF716FBE5
:1016C0000300BB6109E0FFF711FB0200BB69D31AFD
:1016D0009B4A934201D903232BE1984B1B6A0222B8
:1016E0001340F0D013E0FFF701FB0300BB6109E0FA
:1016F000FFF7FCFA0200BB69D31A914A934201D961
:10170000032316E18D4B1B6A02221340F0D11F23E5
:10171000FB181B78012B05D1884BDA69874B894967
:101720000A40DA617B681B681022134063D07B6833
:101730005B69012B2AD1814B5A6B804B04210A43F0
:101740005A637E4B5A6B7D4B01210A435A63FFF764
:10175000CDFA0300BB6108E0FFF7C8FA0200BB69DD
:10176000D31A022B01D90323E3E0744B5B6B0222F3
:101770001340F1D0714B5B6BF822934319007B68E7
:101780009B69DA006D4B0A435A6334E07B685B69FE
:10179000053311D1694B5A6B684B04218A435A6354
:1017A000664B5B6BF822934319007B689B69DA00F8
:1017B000624B0A435A631EE0604B5A6B5F4B042135
:1017C0000A435A635D4B5A6B5C4B01218A435A634F
:1017D000FFF78CFA0300BB6108E0FFF787FA02000D
:1017E000BB69D31A022B01D90323A2E0534B5B6BD5
:1017F00002221340F1D17B681B6A002B00D197E0D5
:101800004E4B5B680C221340082B00D16BE07B68C9
:101810001B6A022B4CD1494B1A68484B4A490A4073
:101820001A60FFF763FA0300BB6108E0FFF75EFA96
:101830000200BB69D31A022B01D9032379E03F4B85
:101840001A6880239B041340F0D13C4BDB6A0F22C3
:10185000934319007B68DA6A384B0A43DA62374BE4
:101860005B683A4A134019007B689A6A7B685B6A36
:101870001A43324B0A435A60304B1A682F4B80216F
:1018800049040A431A60FFF731FA0300BB6108E01C
:10189000FFF72CFA0200BB69D31A022B01D90323EC
:1018A00047E0264B1A6880239B041340F0D03FE0AA
:1018B000224B1A68214B24490A401A60FFF716FA96
:1018C0000300BB6108E0FFF711FA0200BB69D31AFD
:1018D000022B01D903232CE0184B1A6880239B04A8
:1018E0001340F0D124E07B681B6A012B01D1012356
:1018F0001FE0124B5B687B61104BDB6A3B617A69CE
:1019000080235B021A407B685B6A9A420ED13B6976
:101910000F221A407B68DB6A9A4207D17A69F0236A
:101920009B031A407B689B6A9A4201D0012300E026
:1019300000231800BD4608B080BDC046001002401C
:1019400088130000FFFFFFEFFFFFFFFEFFFFC2FF56
:1019500080B584B000AF786039607B68002B01D11E
:101960000123B3E05B4B1B68012213403A689A42A3
:1019700011D9584B1B68012293431900554B3A6803
:101980000A431A60534B1B68012213403A689A427B
:1019900001D001239AE07B681B680222134015D016
:1019A0007B681B680422134006D04B4B5A684A4B95
:1019B000E021C9000A435A60474B5B68F022934319
:1019C00019007B689A68444B0A435A607B681B681D
:1019D0000122134040D07B685B68012B07D13E4B4E
:1019E0001A6880239B02134014D101236EE07B68A8
:1019F0005B68022B07D1384B1A6880239B04134085
:101A000008D1012362E0344B1B680222134001D14C
:101A100001235BE0304B5B680322934319007B6832
:101A20005A682D4B0A435A60FFF760F90300FB60C8
:101A300009E0FFF75BF90200FB68D31A274A9342DB
:101A400001D9032342E0244B5B680C221A407B68D7
:101A50005B689B009A42ECD11E4B1B68012213402D
:101A60003A689A4211D21B4B1B680122934319001A
:101A7000184B3A680A431A60164B1B680122134040
:101A80003A689A4201D0012320E07B681B68042257
:101A9000134009D0104B5B68114A134019007B6852
:101AA000DA680D4B0A435A6000F020F801000A4B37
:101AB0005B681B090F2213400A4AD35C0A00DA4014
:101AC000094B1A600320FFF7CBF800231800BD462E
:101AD00004B080BD002002400010024088130000C6
:101AE000FFF8FFFFA03200080400002080B586B098
:101AF00000AF0023FB600023BB6000237B61002359
:101B00007B6000233B61204B5B68FB60FB680C2221
:101B10001340042B02D0082B03D02CE01B4B3B615D
:101B20002CE0FB689B0C0F221340194AD35C7B60AE
:101B3000154BDB6A0F221340164AD35CBB60FA6870
:101B400080235B02134009D0B9681048FEF7DCFA25
:101B500003001A007B6853437B6109E079680A003F
:101B60005201521A93019B1ADB005B181B027B6126
:101B70007B693B6102E0054B3B61C0463B69180055
:101B8000BD4606B080BDC0460010024000127A007B
:101B9000B8320008C832000880B500AF024B1B689D
:101BA0001800BD4680BDC0460400002080B500AFCF
:101BB000FFF7F2FF0100064B5B681B0A0722134088
:101BC000044AD35CD9400B001800BD4680BDC04616
:101BD00000100240B032000880B586B000AF7860D7
:101BE00000233B610023FB607B681A6880235B0253
:101BF000134000D18EE017203B1800221A70574B7B
:101C0000DA6980235B05134010D1544BDA69534BDA
:101C1000802149050A43DA61504BDA6980235B056C
:101C20001340BB60BB683B1801221A704C4B1A680A
:101C300080235B0013401AD1494B1A68484B80211E
:101C400049000A431A60FFF751F803003B6108E0BE
:101C5000FFF74CF802003B69D31A642B01D9032328
:101C600077E03F4B1A6880235B001340F0D03B4B7A
:101C70001A6AC0239B001340FB60FB68002B34D022
:101C80007B685A68C0239B001340FA689A422CD0A4
:101C9000324B1B6A334A1340FB60304B1A6A2F4B9E
:101CA000802149020A431A622C4B1A6A2B4B2E4997
:101CB0000A401A62294BFA681A62FB680122134033
:101CC00013D0FFF713F803003B6109E0FFF70EF8AC
:101CD00002003B69D31A254A934201D9032338E015
:101CE0001E4B1B6A02221340F0D01C4B1B6A1D4A7C
:101CF000134019007B685A68184B0A431A6217236D
:101D0000FB181B78012B05D1144BDA69134B1849CA
:101D10000A40DA617B681B680122134009D00F4B2F
:101D20001B6B0322934319007B689A680B4B0A4391
:101D30001A637B681B682022134009D0074B1B6B7A
:101D40001022934319007B68DA68044B0A431A6334
:101D500000231800BD4606B080BDC04600100240FA
:101D600000700040FFFCFFFFFFFFFEFF8813000034
:101D7000FFFFFFEF80B582B000AF78607B68002B7B
:101D800001D1012344E07B68DB6F002B07D17B6826
:101D90007822002199547B681800FEF7A1FE7B6829
:101DA0002422DA677B681B681A687B681B6801213C
:101DB0008A431A607B685B6A002B03D07B6818003B
:101DC00000F046FD7B68180000F002FC0300012BC8
:101DD00001D101231CE07B681B685A687B681B6883
:101DE0000D490A405A607B681B689A687B681B68CB
:101DF00008218A439A607B681B681A687B681B68A5
:101E000001210A431A607B68180000F0D5FD030029
:101E10001800BD4602B080BDFFF7FFFF80B58AB055
:101E200002AFF860B9603B60BB1D1A80FB68DB6FD6
:101E3000202B00D08CE0BB68002B03D0BB1D1B887F
:101E4000002B01D1012384E0FB689A6880235B01A9
:101E50009A4209D1FB681B69002B05D1BB6801229E
:101E6000134001D0012374E0FB68842200219950C3
:101E7000FB682122DA67FEF739FF03007B61FB680C
:101E8000BA1D502112885A52FB68BA1D522112887D
:101E90005A52FB689A6880235B019A4208D1FB681A
:101EA0001B69002B04D10023FB61BB68BB6103E00D
:101EB000BB68FB610023BB612FE07A69F8683B686F
:101EC000009313000022802100F01EFE031E04D0A8
:101ED000FB682022DA6703233BE0FB69002B0BD170
:101EE000BB691A88FB681B68D205D20D92B21A85AD
:101EF000BB690233BB6107E0FB691A78FB681B68AA
:101F00001A85FB690133FB61FB6852229B5A9BB225
:101F1000013B99B2FB6852229952FB6852229B5AAC
:101F20009BB2002BC9D17A69F8683B680093130013
:101F30000022402100F0E8FD031E04D0FB682022AF
:101F4000DA67032305E0FB682022DA67002300E05C
:101F500002231800BD4608B080BD80B588B000AF30
:101F6000F860B960BB1D1A80FB6880229B58202B4B
:101F700045D1BB68002B03D0BB1D1B88002B01D1B2
:101F800001233DE0FB689A6880235B019A4209D1F6
:101F9000FB681B69002B05D1BB680122134001D0EF
:101FA00001232DE0FB6800221A66FB681B685A6853
:101FB00080231B04134019D0EFF310833B613B696E
:101FC000FB6101237B617B6983F31088C046FB685A
:101FD0001B681A68FB681B688021C9040A431A60E1
:101FE000FB69BB61BB6983F31088C046BB1D1A88BF
:101FF000B968FB68180000F0F7FD030000E0022359
:102000001800BD4608B080BD90B5ABB000AF786099
:102010007B681B68DB69A422B9180B607B681B68AE
:102020001B68A02039180B607B681B689B689C218B
:1020300079180B601100BB181B68994A134098224D
:10204000BC182360BB181B68002B14D17B181B68BD
:10205000202213400FD03B181B68202213400AD0C7
:102060007B689B6E002B00D186E27B689B6E7A6852
:102070001000984780E29823FB181B68002B00D1C2
:1020800014E19C23FB181B680122134006D1A023F6
:10209000FB181B68834A134000D107E1A423FB18F7
:1020A0001B680122134012D0A023FB181A6880235A
:1020B0005B0013400BD07B681B6801221A627B68AF
:1020C00084229B5801221A437B6884215A50A423FE
:1020D000FB181B680222134011D09C23FB181B68BD
:1020E000012213400BD07B681B6802221A627B68B6
:1020F00084229B5804221A437B6884215A50A423CB
:10210000FB181B680422134011D09C23FB181B688A
:10211000012213400BD07B681B6804221A627B6883
:1021200084229B5802221A437B6884215A50A4239C
:10213000FB181B680822134017D0A023FB181B684C
:102140002022134005D19C23FB181B680122134059
:102150000BD07B681B6808221A627B6884229B581C
:1021600008221A437B6884215A50A423FB181A685A
:1021700080231B01134013D0A023FB181A6880236F
:10218000DB0413400CD07B681B68802212011A62AA
:102190007B6884229B5820221A437B6884215A50F2
:1021A0007B6884229B58002B00D1E7E1A423FB1815
:1021B0001B68202213400ED0A023FB181B6820228E
:1021C000134008D07B689B6E002B04D07B689B6E0D
:1021D0007A68100098477B6884229B5894217A186B
:1021E00013607B681B689B6840221340402B04D01F
:1021F0007B181B682822134047D07B68180000F02A
:10220000A9FD7B681B689B6840221340402B37D197
:10221000EFF310833B663B6E90203A181360012366
:102220007B667B6E83F31088C0467B681B689A6868
:102230007B681B6840218A439A603B181B68BB6619
:10224000BB6E83F31088C0467B685B6F002B12D097
:102250007B685B6F144A5A637B685B6F1800FEF7FC
:1022600089FE031E1AD07B685B6F5A6B7B685B6FBD
:102270001800904712E07B68180000F095F90DE017
:102280007B68180000F090F908E07B68180000F007
:102290008BF97B688422002199506FE1C0466DE183
:1022A0000F080000200100041D2E00087B681B6E33
:1022B000012B00D039E1A423FB181B681022134026
:1022C00000D132E1A023FB181B681022134000D17B
:1022D0002BE17B681B6810221A627B681B689B6875
:1022E00040221340402B00D09FE07B685B6F1B684F
:1022F0005A687E217B181A807B181B88002B00D11E
:102300003EE17B6858229B5A7A1812889A4200D381
:1023100036E17B687A185A2112885A527B685B6FC3
:102320009B69202B6FD0EFF310833B633B6BBB6744
:1023300001237B637B6B83F31088C0467B681B683B
:102340001A687B681B6892490A401A60BB6FBB63BE
:10235000BB6B83F31088C046EFF31083FB63FB6B0A
:102360007B6701233B643B6C83F31088C0467B682A
:102370001B689A687B681B6801218A439A607B6F9F
:102380007B647B6C83F31088C046EFF31083BB64DF
:10239000BB6C3B670123FB64FB6C83F31088C04676
:1023A0007B681B689A687B681B6840218A439A6037
:1023B0003B6F3B653B6D83F31088C0467B68802292
:1023C000202199507B6800221A66EFF310837B6509
:1023D0007B6DFB660123BB65BB6D83F31088C04634
:1023E0007B681B681A687B681B6810218A431A6027
:1023F000FB6EFB65FB6D83F31088C0467B685B6FEB
:102400001800FEF77FFD7B6802225A667B6858221F
:102410009A5A7B685A215B5A9BB2D31A9AB27B684C
:102420001100180000F0C8F8AAE07B685822995AF9
:102430007B685A229B5A9AB28E203B188A1A1A80BD
:102440007B685A229B5A9BB2002B00D19AE03B1822
:102450001B88002B00D195E0EFF31083FB60FB6835
:1024600088243A19136001233B613B6983F3108888
:10247000C0467B681B681A687B681B6845490A4030
:102480001A603B191B687B617B6983F31088C04627
:10249000EFF31083BB61BB6984243A1913600123F5
:1024A000FB61FB6983F31088C0467B681B689A68F0
:1024B0007B681B6801218A439A603B191B683B6259
:1024C0003B6A83F31088C0467B68802220219950A4
:1024D0007B6800221A667B6800229A66EFF31083FD
:1024E0007B627B6A80243A1913600123BB62BB6A5A
:1024F00083F31088C0467B681B681A687B681B687A
:1025000010218A431A603B191B68FB62FB6A83F344
:102510001088C0467B6802225A663B181A887B687E
:102520001100180000F048F82CE0A423FB181B68E9
:10253000802213400FD0A023FB181B688022134079
:1025400009D07B68DB6E002B1ED07B68DB6E7A685F
:102550001000984718E0A423FB181B684022134082
:1025600013D0A023FB181B68402213400DD07B68BA
:10257000180000F06AFC08E0C04606E0C04604E02F
:10258000C04602E0C04600E0C046BD462BB090BD4C
:10259000FFFEFFFFDFFEFFFF80B582B000AF786077
:1025A000C046BD4602B080BD80B582B000AF786045
:1025B000C046BD4602B080BD80B582B000AF786035
:1025C0000A00BB1C1A80C046BD4602B080BD000098
:1025D00080B588B000AF78601E23FB1800221A7007
:1025E0007B689A687B681B691A437B685B691A433E
:1025F0007B68DB6913437B617B681B681B688D4AC2
:10260000134019007B681B687A690A431A607B686B
:102610001B685B68884A134019007B68DA687B682E
:102620001B680A435A607B689B697B617B681B6AF5
:102630007A6913437B617B681B689B687F4A134000
:1026400019007B681B687A690A439A607B681B687B
:102650007B4A934227D17B4B1B6B03221340032BF6
:102660000DD01BD8022B14D018D8002B02D0012B70
:102670000AD013E01F23FB1800221A7021E01F2349
:10268000FB1802221A701CE01F23FB1804221A7088
:1026900017E01F23FB1808221A7012E01F23FB18F3
:1026A00010221A700DE07B681B68674A934204D1C0
:1026B0001F23FB1800221A7003E01F23FB181022AF
:1026C0001A707B68DA6980231B029A425CD11F234F
:1026D000FB181B78082B15D018DC042B0DD015DC4B
:1026E000002B02D0022B05D010E0FFF75FFA0300A9
:1026F000BB6112E0554BBB610FE0FFF7F7F9030038
:10270000BB610AE080231B02BB6106E00023BB61C2
:102710001E23FB1801221A70C046BB69002B00D192
:102720007AE0BB695A007B685B685B08D2187B68FB
:102730005B6819001000FDF7E7FC03003B613B6993
:102740000F2B1CD93A6980235B029A4217D23B694E
:102750009AB20E203B180F218A431A803B695B080E
:102760009BB20722134099B23B183A1812880A43C9
:102770001A807B681B683A181288DA604CE01E23C6
:10278000FB1801221A7047E01F23FB181B78082B47
:1027900015D018DC042B0DD015DC002B02D0022B39
:1027A00005D010E0FFF702FA0300BB6112E0274BEF
:1027B000BB610FE0FFF79AF90300BB610AE08023D9
:1027C0001B02BB6106E00023BB611E23FB18012234
:1027D0001A70C046BB69002B1ED07B685B685A0824
:1027E000BB69D2187B685B6819001000FDF78CFC90
:1027F00003003B613B690F2B0AD93A6980235B02D6
:102800009A4205D23B699AB27B681B68DA6003E0A2
:102810001E23FB1801221A707B6800229A667B68CF
:102820000022DA661E23FB181B781800BD4608B08C
:1028300080BDC046F369FFFFFFCFFFFFFFF4FFFF3E
:1028400000380140001002400044004000127A00AD
:1028500080B582B000AF78607B685B6A0822134065
:102860000BD07B681B685B684A4A134019007B6881
:102870005A6B7B681B680A435A607B685B6A01225B
:1028800013400BD07B681B685B68434A13401900F8
:102890007B689A6A7B681B680A435A607B685B6A3C
:1028A000022213400BD07B681B685B683B4A1340D5
:1028B00019007B68DA6A7B681B680A435A607B6888
:1028C0005B6A042213400BD07B681B685B68344A48
:1028D000134019007B681A6B7B681B680A435A60B7
:1028E0007B685B6A102213400BD07B681B689B6877
:1028F0002C4A134019007B689A6B7B681B680A435B
:102900009A607B685B6A202213400BD07B681B684F
:102910009B68254A134019007B68DA6B7B681B684B
:102920000A439A607B685B6A402213401DD07B6833
:102930001B685B681D4A134019007B681A6C7B6832
:102940001B680A435A607B681A6C80235B039A42B7
:102950000BD17B681B685B68154A134019007B68C4
:102960005A6C7B681B680A435A607B685B6A8022EA
:1029700013400BD07B681B685B680E4A134019003C
:102980007B689A6C7B681B680A435A60C046BD46E8
:1029900002B080BDFF7FFFFFFFFFFDFFFFFFFEFFD7
:1029A000FFFFFBFFFFEFFFFFFFDFFFFFFFFFEFFF7B
:1029B000FFFF9FFFFFFFF7FF80B592B002AF786087
:1029C0007B68842200219950FEF790F90300FB6395
:1029D0007B681B681B6808221340082B2CD1FB6BFB
:1029E000802291037868464A0092002200F08CF819
:1029F000031E21D0EFF310837B627B6ABB6301234C
:102A0000BB62BB6A83F31088C0467B681B681A6888
:102A10007B681B6880218A431A60BB6BFB62FB6A80
:102A200083F31088C0467B682022DA677B687822AF
:102A30000021995403235FE07B681B681B68042214
:102A40001340042B46D1FB6B8022D10378682C4ABB
:102A50000092002200F058F8031E3BD0EFF31083E1
:102A6000FB60FB687B6301233B613B6983F3108858
:102A7000C0467B681B681A687B681B6821490A404E
:102A80001A607B6B7B617B6983F31088C046EFF330
:102A90001083BB61BB693B630123FB61FB6983F36B
:102AA0001088C0467B681B689A687B681B68012198
:102AB0008A439A603B6B3B623B6A83F31088C04653
:102AC0007B688022202199507B68782200219954CC
:102AD000032311E07B682022DA677B6880222021B3
:102AE00099507B6800221A667B6800225A667B68D0
:102AF00078220021995400231800BD4610B080BDF3
:102B0000FFFFFF01DFFEFFFF80B584B000AFF8607C
:102B1000B9603B60FB1D1A7051E0BB6901334ED0B8
:102B2000FEF7E4F802003B68D31ABA699A4202D36E
:102B3000BB69002B01D1032351E0FB681B681B68B4
:102B4000042213403BD0BB68802B38D0BB68402B9D
:102B500035D0FB681B68DB6908221340082B11D1B4
:102B6000FB681B6808221A62FB68180000F0F2F884
:102B7000FB68842208219950FB687822002199542F
:102B800001232CE0FB681B68DA6980231B011A40D3
:102B900080231B019A4212D1FB681B68802212011C
:102BA0001A62FB68180000F0D5F8FB688422202127
:102BB0009950FB6878220021995403230FE0FB68A9
:102BC0001B68DB69BA681340BA68D31A5A4253418A
:102BD000DBB21A00FB1D1B789A429ED0002318001E
:102BE000BD4604B080BD000080B590B000AFF86075
:102BF000B960BB1D1A80FB68BA685A65FB68BA1DCC
:102C0000582112885A52FB68BA1D5A2112885A520A
:102C1000FB6800229A66FB689A6880235B019A42EF
:102C20000DD1FB681B69002B04D1FB685C2246496F
:102C300099521AE0FB685C22FF21995215E0FB686B
:102C40009B68002B0DD1FB681B69002B04D1FB682E
:102C50005C22FF21995208E0FB685C227F21995297
:102C600003E0FB685C2200219952FB68842200216A
:102C70009950FB68802222219950EFF31083BB62A8
:102C8000BB6AFB630123FB62FB6A83F31088C046C7
:102C9000FB681B689A68FB681B6801210A439A60FD
:102CA000FB6B3B633B6B83F31088C046FB689A6801
:102CB00080235B019A4207D1FB681B69002B03D17B
:102CC000FB68224A9A6602E0FB68214A9A66FB6822
:102CD0001B69002B19D0EFF31083FB61FB697B6349
:102CE00001233B623B6A83F31088C046FB681B6884
:102CF0001A68FB681B68902149000A431A607B6BC5
:102D00007B627B6A83F3108818E0EFF310833B61EA
:102D10003B69BB6301237B617B6983F31088C046F9
:102D2000FB681B681A68FB681B6820210A431A604D
:102D3000BB6BBB61BB6983F31088C04600231800DE
:102D4000BD4610B080BDC046FF01000059300008EC
:102D5000A12E000880B58EB000AF7860EFF310832D
:102D60007B617B697B630123BB61BB6983F3108853
:102D7000C0467B681B681A687B681B6826490A4046
:102D80001A607B6BFB61FB6983F31088C046EFF32D
:102D900010833B623B6A3B6301237B627B6A83F364
:102DA0001088C0467B681B689A687B681B68012195
:102DB0008A439A603B6BBB62BB6A83F31088C04650
:102DC0007B681B6E012B18D1EFF31083BB60BB68CF
:102DD000FB620123FB60FB6883F31088C0467B68BD
:102DE0001B681A687B681B6810218A431A60FB6A9B
:102DF0003B613B6983F31088C0467B6880222021B9
:102E000099507B6800221A667B6800229A66C04649
:102E1000BD460EB080BDC046DFFEFFFF80B584B06A
:102E200000AF78607B685B6AFB60FB685A22002118
:102E30009952FB68522200219952FB681800FFF753
:102E4000B3FBC046BD4604B080BD80B586B000AFC0
:102E50007860EFF31083BB60BB687B610123FB608C
:102E6000FB6883F31088C0467B681B681A687B6820
:102E70001B6840218A431A607B693B613B6983F38D
:102E80001088C0467B682022DA677B680022DA66F9
:102E90007B681800FFF780FBC046BD4606B080BDCA
:102EA00080B594B000AF78604E203B187A685C2102
:102EB000525A1A807B6880229B58222B00D0BAE09D
:102EC0007B681A684C217B18928C1A807B181B88AF
:102ED000DAB23B181B88D9B27B685B6D0A40D2B26C
:102EE0001A707B685B6D5A1C7B685A657B685A2236
:102EF0009B5A9BB2013B99B27B685A2299527B68DC
:102F00005A229B5A9BB2002B00D09CE0EFF3108317
:102F10007B627B6ABB640123BB62BB6A83F310885C
:102F2000C0467B681B681A687B681B6848490A4072
:102F30001A60BB6CFB62FB6A83F31088C046EFF338
:102F400010833B633B6B7B6401237B637B6B83F36D
:102F50001088C0467B681B689A687B681B680121E3
:102F60008A439A607B6CBB63BB6B83F31088C0465B
:102F70007B688022202199507B6800229A667B68BA
:102F800000225A667B681B685A6880231B04134022
:102F900018D0EFF31083BB61BB693B640123FB6175
:102FA000FB6983F31088C0467B681B681A687B68DE
:102FB0001B6828490A401A603B6C3B623B6A83F3FA
:102FC0001088C0467B681B6E012B2FD17B680022C6
:102FD0001A66EFF31083FB60FB68FB6301233B6120
:102FE0003B6983F31088C0467B681B681A687B685E
:102FF0001B6810218A431A60FB6B7B617B6983F33A
:103000001088C0467B681B68DB6910221340102BB8
:1030100003D17B681B6810221A627B6858229A5A77
:103020007B6811001800FFF7C7FA0CE07B681800F6
:10303000FDF7DEFC07E07B681B689A697B681B680C
:1030400008210A439A61C046BD4614B080BDC046FF
:10305000DFFEFFFFFFFFFFFB80B594B000AF78609D
:103060004E203B187A685C21525A1A807B68802275
:103070009B58222B00D0BAE07B681A684C217B1841
:10308000928C1A807B685B6DBB647B183A181B8836
:10309000128813409AB2BB6C1A807B685B6D9A1CD5
:1030A0007B685A657B685A229B5A9BB2013B99B256
:1030B0007B685A2299527B685A229B5A9BB2002BFA
:1030C00000D09CE0EFF310833B623B6A7B640123FA
:1030D0007B627B6A83F31088C0467B681B681A6832
:1030E0007B681B6848490A401A607B6CBB62BB6AFC
:1030F00083F31088C046EFF31083FB62FB6A3B64E6
:1031000001233B633B6B83F31088C0467B681B68DD
:103110009A687B681B6801218A439A603B6C7B63D9
:103120007B6B83F31088C0467B68802220219950F6
:103130007B6800229A667B6800225A667B681B685F
:103140005A6880231B04134018D0EFF310837B616F
:103150007B69FB630123BB61BB6983F31088C046B5
:103160007B681B681A687B681B6828490A401A60DC
:10317000FB6BFB61FB6983F31088C0467B681B6EA9
:10318000012B2FD17B6800221A66EFF31083BB60FE
:10319000BB68BB630123FB60FB6883F31088C046F8
:1031A0007B681B681A687B681B6810218A431A6059
:1031B000BB6B3B613B6983F31088C0467B681B682F
:1031C000DB6910221340102B03D17B681B6810228F
:1031D0001A627B6858229A5A7B6811001800FFF720
:1031E000EBF90CE07B681800FDF702FC07E07B6858
:1031F0001B689A697B681B6808210A439A61C0466C
:10320000BD4614B080BDC046DFFEFFFFFFFFFFFBE1
:1032100003008218934200D1704719700133F9E717
:1032200070B500260C4C0D4D641BA410A64209D1AC
:10323000002600F019F80A4C0A4D641BA410A6429F
:1032400005D170BDB300EB5898470136EEE7B300E7
:10325000EB5898470136F2E7D8320008D832000818
:10326000DC320008D8320008F8B5C046F8BC08BC0B
:103270009E467047F8B5C046F8BC08BC9E467047ED
:103280001A16E916651649166C1649161A16B1165D
:1032900025000500050005000500050025000700C4
:1032A00000000000000000000102030406070809F6
:1032B00000000000010203040203040506070809D8
:1032C0000A0B0C0D0E0F101001020304050607086F
:0832D000090A0B0C0D0E0F1092
:0432D800E900000801
:0432DC00C100000825
:1032E000B116000000127A00040000000100000086
:0400000508000BE5FF
:00000001FF
