:020000040800F2
:10000000002000203D110008291100082B110008D4
:1000100000000000000000000000000000000000E0
:100020000000000000000000000000002D1100088A
:1000300000000000000000002F110008311100082E
:100040008D110008000000008D1100088D110008BE
:100050008D1100088D1100088D1100088D11000808
:10006000000000008D1100088D1100088D1100089E
:100070008D1100088D1100088D110008000000008E
:100080008D110008550E0008000000008D110008B9
:100090008D1100088D1100088D1100088D110008C8
:1000A0008D1100088D1100088D1100088D110008B8
:1000B0008D1100080000000000000000000000009A
:1000C00010B5064C2378002B07D1054B002B02D02E
:1000D000044800E000BF0123237010BD0C00002085
:1000E000000000003C200008044B10B5002B03D09A
:1000F0000349044800E000BF10BDC04600000000F6
:10010000100000203C200008002243088B4274D3DA
:1001100003098B425FD3030A8B4244D3030B8B4208
:1001200028D3030C8B420DD3FF22090212BA030C11
:100130008B4202D31212090265D0030B8B4219D3F2
:1001400000E0090AC30B8B4201D3CB03C01A524112
:10015000830B8B4201D38B03C01A5241430B8B425A
:1001600001D34B03C01A5241030B8B4201D30B0343
:10017000C01A5241C30A8B4201D3CB02C01A52416A
:10018000830A8B4201D38B02C01A5241430A8B422D
:1001900001D34B02C01A5241030A8B4201D30B0216
:1001A000C01A5241CDD2C3098B4201D3CB01C01A30
:1001B000524183098B4201D38B01C01A524143093A
:1001C0008B4201D34B01C01A524103098B4201D328
:1001D0000B01C01A5241C3088B4201D3CB00C01A95
:1001E000524183088B4201D38B00C01A524143080D
:1001F0008B4201D34B00C01A5241411A00D2014632
:10020000524110467047FFE701B5002000F006F8A4
:1002100002BDC0460029F7D076E770477047C04658
:100220009E2110B5C905041C00F070FC002803D104
:10023000201C00F0CBFB10BD9E21201CC90500F046
:1002400061F900F0C3FB80231B069C466044F2E783
:10025000F0B54F464646D6464400C0B546020F1C90
:10026000760A240EC50F002C00D1DAE0FF2C74D0E2
:100270008023F600DB041E43002399469A467F3C08
:100280007B025B0A98467B001B0EFF0F002B74D08D
:10029000FF2B00D18EE042468021D200C9041143D9
:1002A0007F3B2A00E4184B467A408846D2B20A2B9C
:1002B00075DC4B460020022B0FDD494601238B40A5
:1002C000A621C9000B4269D1902189000B4200D0C0
:1002D00000E18821194200D0F5E041460904090CEB
:1002E00043460800350C36041B0C360C704369433A
:1002F0005E435D437618030C9B19994203D9802114
:1003000049028C46654400041904000C09188E014A
:10031000701E86411B0C890E5B190E439B011E4308
:100320001B016CD423007F33002B00DCB1E01500EF
:1003300071070BD00F2021003040042806D004366E
:10034000320103D56E4B1E400B008033FE2B00DDC7
:10035000BDE0B201520ADBB248E0002E00D092E0CC
:1003600008239946063B9A467B025B0A98467B0027
:10037000FF241B0EFF0F002B8AD14246002A64D1B6
:1003800049460132114389460A2908DC7D40012093
:10039000EAB2022991DC1500002227E0150053463D
:1003A000022B00D193E0032B1AD0012B2CD1002378
:1003B00000221BE04346FF34002B55D003214B465F
:1003C0000B4319000A2B00DC92E00F2B00D08CE0CD
:1003D0008022D203164203D04346134200D17DE06F
:1003E0008022D20332435202520AFF23D805ED077E
:1003F00010432843E0BCBA46B146A846F0BD0123ED
:10040000150071081E400E4323008033611C002B31
:1004100041DD720794D00F223240042A00D08EE7CB
:100420008EE7002E05D104239946033B00249A460B
:1004300026E7300000F074FB7624431F9E40002323
:10044000644299469A46241A1AE7404600F068FB2F
:100450004B46241A763C0A2BA1DC434605388340E0
:100460007D409846EAB224E74A46023313432A0005
:100470007A40D2B20A2B92DC49461500002926D0D8
:100480009946022019E70C239946093BFF249A4616
:10049000F6E6150021000122D31A1B2B00DD86E7AA
:1004A0009E3132008E40DA40731E9E413243530724
:1004B00004D00F231340042B00D00432530110D575
:1004C0000123002292E73D004646824667E7FF236C
:1004D00000228BE780220025D20386E73D001A43E5
:1004E00083E792010023520A80E73D00464677E702
:1004F0002A0001237A408B400320D2B2E9E6C046AD
:10050000FFFFFFF7F8B54746CE46430280B55F0AC6
:100510009B0945004A009C464B02C40FCE0F2D0E8E
:10052000580A120E9909FF2A6BD001235E40AB1ABC
:10053000B4424BD0002B00DCFFE0002A00D188E061
:10054000FF2D00D1EFE08022D204114301201B2BAC
:1005500008DC08002022D840D31A99400B005A1E0C
:100560009341184363461B1A9C4663465B0100D4C3
:10057000CDE063469F01BF09380000F0D1FA3B008F
:1005800005388340854200DCA2E0B74A2D1A1A40A4
:1005900094465A0700D1C3E00F221340042B00D128
:1005A000BEE004239846C44463465B0100D4B7E030
:1005B000681CFE2D00D0A5E0FF200022C0051043DE
:1005C000E4072043C0BCB946B046F8BD002B00DCB0
:1005D000EBE1002A46D0FF2D00D1A4E08022D20416
:1005E00011431B2B00DCFBE0052398462B00C44481
:1005F0006246D708FF2B00D195E07A02520AD8B2A2
:10060000DCE72B00FF3B9946002918D101235E400F
:10061000B44200D1CAE04B46002B2DD0002D00D0B3
:100620003CE1FF236446002C00D15FE15D1E012BFD
:1006300000D174E13400FF2B74D02B0003E1B442ED
:1006400000D19CE0002B17D0002DEAD00700340029
:100650006CE00029CCD05A1E012B2BD0FF2B62D08E
:10066000130073E70029C3D05A1E012B00D11EE1ED
:10067000FF2B58D01300B4E7FE226B1C1A420DD199
:10068000002D60D06346002B00D020E1002900D06F
:1006900028E180220024FF20D2038FE763465F1AFF
:1006A0007B0100D5FEE0002F00D065E7002400208C
:1006B000002283E76346591A4B0100D419E18F01E8
:1006C000BF09380000F02CFA3B00053883400125B3
:1006D0002022401B0130121A19009340C1405A1EBB
:1006E000934119438C460B1EE1D05B0700D152E1C8
:1006F0000F2300250B40042B00D052E701204A01B4
:1007000000D492E0C0B263469A01520A56E76346AB
:100710005B0705D00F2362461340042B00D040E74F
:100720002B0065E70700002F00D145E78022D203A8
:100730003A435202FF20520A40E7002B79D1FE22B1
:100740006B1C1A42AAD16346002B00D1F5E00029A8
:1007500000D1D1E05F1A8023DB041F4200D10EE1FB
:10076000624601248A1A944600203440002A00D1AF
:1007700024E701201A42C6D10023D7083DE7002B09
:1007800017D0002D00D0AFE0FF236546002D00D12B
:10079000ADE05E1E012B00D189E0FF2BC2D01B2EE5
:1007A00000DCABE04B1D9C46130021E74B46002BC1
:1007B00070D1FE226B1C1A425ED1002D00D0C3E026
:1007C0006346002B00D1D0E0002900D194E00A005C
:1007D0006244530100D4D8E092010120520AEDE6B0
:1007E00008002022D840D31A99400B005A1E93418A
:1007F00003439C4463465B0189D50135FF2D00D13D
:10080000DAE6624601231949134052080A401A43A6
:10081000130094465B0704D00F231340042B00D031
:10082000BFE663465B0100D5C2E66346DF082B00E6
:10083000E3E6531B002D00D1F4E680206446C0049B
:100840000443A446340001201B2B09DC202560460C
:10085000D840EB1A65469D402B005D1EAB41184306
:100860000B1A9C46150080E6FFFFFFFBFFFFFF7D94
:10087000FE226B1C1342A3D0FF2B00D19CE66144E7
:1008800049084A0749D00F220A40042A45D00A1DC8
:100890009446ADE6002D00D176E78DE63400FF20CA
:1008A00000228BE663460124CF1A344064E661449B
:1008B0004B016DD548084449014043072CD00F2314
:1008C0000340042B28D00B1D9C46022390E60029F0
:1008D00000D12BE78023DB039F4200D226E798421A
:1008E00000D323E70124344007001FE734008C467F
:1008F0007EE60123CF0880E600237EE620206546C1
:10090000801B854063462800F340451EA8410343F1
:100910009C4615008C446DE70223CF086DE60F1B43
:100920007B0128D5BF01BF09380000F0F9F83B0072
:100930000538834034000125CAE6002900D1B5E618
:1009400001240700344058E66346002B00D1E9E655
:10095000002900D1EAE68023DB039F4200D2E5E6CE
:10096000984200D3E2E60700E0E6002900D19EE6C7
:100970000023CF0841E634000123FF083DE6002FA5
:1009800000D193E60023FF0837E60023D70834E6BA
:100990000123CF0831E680220B00D204012013404E
:1009A000114200D0AEE6CF0827E6002B00D15FE76A
:1009B000561B002D01D13300E7E680236046DB049F
:1009C00018438446EBE6C046FFFFFF7D410242002C
:1009D000C30F490A0020120E7E2A03DD9D2A02DD84
:1009E000094A98187047802000040143952A07DCC3
:1009F0009620821AD1404842002BF3D10800F1E73B
:100A0000963A9140F7E7C046FFFFFF7F70B5002898
:100A100012D0C317C5185D40C40F280000F080F83D
:100A20009E231B1A962B0FDC082838D008388540E7
:100A30006D026D0AD8B202E0002400200025C00536
:100A40002843E407204370BD992B14DC421F9540D6
:100A50002A001549114055071CD00F252A40042AA9
:100A600018D00431CA08490115D59F235202181A1B
:100A7000550AC0B2E3E705222900121AD14002004C
:100A80001B3295402A00551EAA410A4306491140CF
:100A90005507E2D1CA085202550AD8B2CFE76D0213
:100AA0006D0A8E30CBE7C046FFFFFFFB844608008F
:100AB0006146FFE71FB500F0C1F8002801D400210E
:100AC000C8421FBD10B500F049F84042013010BDCA
:100AD00010B500F0B3F8002801DB002010BD0120A4
:100AE00010BDC04610B500F0A9F8002801DD0020B7
:100AF00010BD012010BDC04610B500F057F8002809
:100B000001DC002010BD012010BDC04610B500F072
:100B10004DF8002801DA002010BD012010BDC046AC
:100B20001C2101231B04984201D3000C10391B0A1D
:100B3000984201D3000A08391B09984201D30009E1
:100B4000043902A2105C40187047C0460403020238
:100B500001010101000000000000000070B542002A
:100B60004E024C0045026D0A120EC30F760A240E87
:100B7000C90FFF2A10D0FF2C0CD00120A2420AD1AD
:100B8000B54208D18B420FD0002A04D12800431E61
:100B9000984100E0012070BD0120FF2CFBD13543BE
:100BA000F9D14B401800F6E70020F4E730B54200D9
:100BB00044024D02C30F4800640A120E6D0A000E73
:100BC000C90FFF2A18D0FF280AD0002A1ED10028FA
:100BD0000AD1002D29D0002C2DD14800013830BD7C
:100BE000002D25D1002A01D1002CF6D08B4219D03E
:100BF00001205B421843F2E7002C19D1FF28F7D1FE
:100C0000002D15D100208B42F2D1E8E70028EFD06B
:100C10008B42EDD18242EBDC04DBAC42E8D8002011
:100C2000AC42DCD258000138D9E7002CD7D0DFE73E
:100C300002204042D3E78B42DAD1EEE730B54200E2
:100C400044024D02C30F4800640A120E6D0A000EE2
:100C5000C90FFF2A17D0FF280AD0002A1BD100286D
:100C60000AD1002D1DD0002C2DD14800013811E0F3
:100C7000002D0ED1002A01D1002CF6D08B420CD1D0
:100C80005800013806E0002C03D1FF2805D1002DC3
:100C900015D0022030BD002806D101205B42184348
:100CA000F8E7002CF6D0F8E78B42F6D18242F4DC6C
:100CB000E6DBAC42F1D80020AC42EBD2E0E700200A
:100CC0008B42EAD1E6E78B42E7D1F2E7F0B50C269A
:100CD000012580271A4C8BB020000122802100F0D2
:100CE0002FFE3200002102A801F07BF969462000A6
:100CF0000097019500F06CFD2A002000402100F0D3
:100D00001FFE3200002107A801F06BF9343605A957
:100D100020000596069500F05BFD280000F07EFAA5
:100D200039000022200000F00BFE280000F076FAC7
:100D300000223100200000F003FE0BB0F0BDC046E1
:100D40000004004810B50D4C00228021200000F066
:100D5000F7FD012000F062FA01224021200000F09E
:100D6000EFFD012000F05AFA01228021200000F05E
:100D7000E7FD012000F052FA10BDC0460004004813
:100D800070B504000825012663B23200002B00DB99
:100D900000228021174800F0D3FD300000F03EFA19
:100DA00032004021134800F0CBFD013D300000F03F
:100DB00035FA6400002240210E48EDB200F0C0FD7B
:100DC000E4B2002DE0D1012280210A4800F0B8FDF4
:100DD000012000F023FA01224021064800F0B0FD76
:100DE000012000F01BFA2A004021024800F0A8FD73
:100DF00070BDC0460004004810B50400FFF766FF50
:100E0000200AFFF7BDFFE0B2FFF7BAFFFFF79AFF36
:100E100010BD00007F22C02070B50C4D0C4C2B780B
:100E2000C001E35C13401843FFF7E6FFC4206B7872
:100E3000C001E35C1843FFF7DFFFC820AB78C001B7
:100E4000E35C1843FFF7D8FF70BDC04628000020C0
:100E50005420000870B51F4801F025F81E4C2000F2
:100E600000F04AFB0A21200000F090FB1B4D0028F7
:100E700003D1200000F0EEFB2880200000F068FB8A
:100E80002888FFF7C3FD1649FFF7E2F9E621890537
:100E9000FFF7DEF9134B14491860FFF7D9F9FFF794
:100EA000BFF985B228006421FFF72EF90F4C6421A9
:100EB00020702800FFF7AEF988B20A21FFF724F965
:100EC0000A2160702800FFF7A5F9A170FFF7A2FFC3
:100ED00070BDC046340000207C000020300000209F
:100EE000333353402C0000200000C842280000206B
:100EF00030B5102591B02C22002105A801F071F821
:100F00002A000021684601F06CF812230493A02304
:100F1000012408950A959B030E3D04A807940994A3
:100F20000C950E9300F012FD002801D072B6FEE77A
:100F3000072302900390210068460093019500F07A
:100F400029FF002801D072B6FEE711B030BD0000C5
:100F500070B588B000F040F9FFF7CAFF14220021F5
:100F600003A801F03EF88021404B89025A694048AD
:100F70000A435A615A6900250A4080210192019A68
:100F80005A69C9020A435A615B6900220B40029305
:100F9000C02101260324029B00F0D2FCC023344868
:100FA00003A9039306940496059500F011FC902084
:100FB00003A9C00504940396059500F009FC0C22D2
:100FC000290003A801F00DF82A4C2B4B20002360C8
:100FD00004236361C223FF33E361631D6560A56081
:100FE000E5602661A5612562DD77A66200F0E2F981
:100FF000A84201D072B6FEE780235B0104938023F0
:1010000003905B05200003A9059300F027FB00284F
:1010100001D072B6FEE71948FFF7EEFE052000F09A
:10102000FDF8C020C001FFF7E7FEC020C001FFF7B8
:10103000E3FEC020C001FFF7DFFE1148FFF7DCFE32
:10104000052000F0EBF80F48FFF7D6FE0E48FFF73B
:10105000D3FE0E48FFF7D0FE0D48FFF7CDFE0D483A
:10106000FFF7CAFE0C48FFF7C7FEECE7001002408E
:10107000000400487C0000200024014001480000DA
:1010800007440000014400007960000002440000B1
:10109000A460000004440000B060000001210A4B7D
:1010A00082B09A690A439A619A690A408021009243
:1010B000009ADA6949050A43DA61DB690B4001935A
:1010C000019B02B07047C0460010024010B50400FA
:1010D00088B01422002103A800F083FF104B22687F
:1010E0009A421BD180210F4B89009A6990200A43B4
:1010F0009A619A69C0050A4080210192019A5A6951
:1011000089020A435A615B690B400293029B0123E7
:1011100003A903930233049300F05AFB08B010BDF7
:101120000024014000100240FEE7FEE770477047D0
:1011300010B500F061F810BD704700000D488546FD
:10114000FFF7FAFF0C480D490D4A002302E0D4587E
:10115000C4500433C4188C42F9D30A4A0A4C002301
:1011600001E013600432A242FBD300F043FFFFF71B
:10117000EFFEFEE700200020000000200C00002011
:10118000982000080C000020C0000020FEE70000AE
:1011900070B50500FA200D4B80001978FEF7B4FFFA
:1011A0000B4C01002068FEF7AFFF00F0F7FA0400D7
:1011B0000120002C09D1032D07D802382200290074
:1011C00000F0C2FA2000034B1D6070BD0400002037
:1011D00000000020080000201023064A10B5116806
:1011E00003200B431360FFF7D3FFFFF757FF0020E7
:1011F00010BDC04600200240034A044B11681B7812
:101200005B1813607047C046BC000020040000203B
:10121000014B18687047C046BC00002070B5040040
:10122000FFF7F6FF0500631C02D0044B1B78E4189F
:10123000FFF7EEFF401BA042FAD370BD0400002070
:101240000422036870B599680400114201D100209E
:1012500070BD9968114206D09A68920703D4102293
:1012600099680A439A60FFF7D3FF042605002368B4
:101270009B683342EBD0FFF7CBFF401B0228F6D927
:1012800023689B683342F2D010230120A26B1343E2
:10129000A363E36B0343E363DAE70321036870B5F9
:1012A0009A6804000A40012A01D0002070BD196824
:1012B000114202D1DA681204F7D505229D68154063
:1012C000012D1CD19968033A0A439A6003221A60DF
:1012D000FFF79EFF060023689B682B42E5D0FFF7CF
:1012E00097FF801B0228F6D923689B682B42F2D017
:1012F0001023A26B1343A363E36B2B4306E010237D
:10130000A26B1343A3630123E26B13430120E36346
:10131000CCE70000002373B50321019303680400A8
:101320009A680A40012A07D11968114201D00020A9
:1013300076BDDA681204FAD499681B4A114209D0C2
:101340001023A26B1343A3630123E26B1343012019
:10135000E363EDE7012299680A439A60134B14494D
:101360001868FEF7D1FE0190019B002B17D1FFF703
:101370004FFF0125060023681B682B42D7D1FFF7DA
:1013800047FF801B0228F6D923681B682B42F2D145
:101390001023A26B1343A363E36B2B43D7E7019B9B
:1013A000013B0193E0E7C0461700008000000020E9
:1013B00040420F0070B5041E00D190E0836B002BFB
:1013C00005D102003432C3631370FFF77FFEA36BB5
:1013D000DB0600D585E0226893685B0700D580E0D6
:1013E000A16B424B19400633FF330B430321A36328
:1013F00093680B40012B05D1116819420ED1D368B7
:101400001B040BD41821D3688B43A1680B43D36012
:10141000136961689B009B080B431361D3683449CF
:101420000B40D360237E607E9B03C0030343A17EF9
:10143000E068034348030343601DC07F400003434B
:10144000A06A0138451EA841000303432069023801
:101450004542684180000343E07E012804D1002911
:101460002BD1802149020B43C220E169FF30814228
:1014700002D0206A01430B438020D1684005194304
:10148000D160E16A814202D0481E062807D80725AC
:1014900050692940A8435061506901435161D268A5
:1014A00014490A409A4210D100200323E063A26B42
:1014B0009A43023B1343A36370BD2021A56B2943CC
:1014C000A163E16B0843E063CEE71223A26B9A436A
:1014D000023B1343A3630123E26B1343E363012045
:1014E000EAE71023A26B1343A363F8E7FDFEFFFFB7
:1014F0001902FEFFE7FF3F83036870B59B68040095
:1015000002205B071AD4250034352B78012B15D027
:1015100001232B70637E012B11D1A26B0B4B00209A
:101520001A4080235B0013431C22A363E0632870EE
:1015300023681A609968183A0A439A6070BD2000BF
:10154000FFF7E8FE0028E8D0F8E7C046FEF0FFFF0E
:1015500070B506003436337804000220012B12D017
:10156000012520003570FFF76BFE002809D120000F
:10157000FFF793FE002804D1A36B034A13401D43D9
:10158000A5630023337070BDFEFEFFFFF8B545690B
:1015900004000E00082D0DD003680120DB680C2527
:1015A000034207D02023A26B34341343636000232B
:1015B0002370F8BDFFF72CFE070023681A68154258
:1015C00022D08022A16B92000A43A263C022D96874
:1015D0001201114213D1A27E002A10D11A681207FB
:1015E0000DD59A68520727D40C215A688A435A604D
:1015F000A16B174A11400432FF320A43A263227ED4
:10160000002A22D00020D4E7721CD7D0002E0DD1A2
:101610002A0023681B681A401D42CED10423A16B07
:1016200034340B43636003202270C2E7FFF7F0FD00
:10163000C01BB042ECD8C0E72022A16B0A43A263D2
:101640000122E16B0A43E263D9E70C221A60D9E771
:10165000FEFEFFFF0368186C70470000F7B500221C
:1016600004000192343422780300C66A0220012A61
:101670002CD0013820701D68AA68520754D40A681B
:101680004F681300BC462B4F9040103BBC453CD0EC
:10169000AF6A3843A862072E0FD8002E11D1072059
:1016A0006E6989680640B1420BD06E69014086437D
:1016B0006E616E693143696103E0802040058642B6
:1016C000EDD1012B03D9002000232370FEBD1300B0
:1016D000103B5D1EAB41802517495B429B0D08689E
:1016E0009B052D045B1903430B60102AEBD1134BB0
:1016F00013491868FEF708FD0A2343430193019B31
:10170000002BE0D0019B013BF8E7AA6A8243AA6262
:10171000012BD8D8581E8341074A0A4811689B05F7
:101720001B180B401360CEE72022996B0A439A6383
:10173000CAE7C04601100000082701400000002051
:1017400040420F00FFFF7FFF10B5FF2403220B0074
:1017500021000240D20091409B012340C9439340A5
:1017600000280ADBC0240B4A800880008018A400EF
:1017700002590A401343035110BD0F22104008388C
:10178000054A800880008018C26911401943C16170
:10179000F2E7C04600E100E000ED00E08022431ED9
:1017A0005204012093420DD2C021074A07485360DA
:1017B000036A09061B021B0A0B430362002007236E
:1017C000906013607047C04610E000E000ED00E05C
:1017D0000023F0B587B00A681400DC4001D107B0DF
:1017E000F0BD012514009D402C4000942A4200D1F8
:1017F00098E04A685F00944603226446224003242E
:10180000BC40E4430194541E012C2ED88668019CF0
:101810002640CC68BC403443846044680126AC4315
:1018200025006446240934409C402C434460C5682C
:10183000019C25408C68BC402C43C460022A16D110
:1018400007250F261D40AD00AE40DC08A40004199A
:101850000294246A03962600039CA64334000E6972
:10186000AE402643029C266201E0032ADFD1BA4043
:101870000468019D25402A43C02402606246A402F8
:1018800022424FD00125284A90279469FF052C4316
:10189000946192699C082A400592059A234AA40003
:1018A000A4180F2202351D40AD00AA40A668964339
:1018B0000022B8420CD01E4F0132B84208D01D4F52
:1018C0000132B84204D01C4F0332B84200D1023A70
:1018D000AA4067463243A260184A009C9668009D61
:1018E000E4433543FF0201D4350025406746956047
:1018F000D668009D3543BF0201D4350025406746B8
:10190000D5605668009D3543BF0301D4350025409E
:10191000674655601568009E2E43FF0301D425409D
:101920002E001660013356E700100240000001400F
:101930000004004800080048000C00480004014072
:10194000002A01D0816170478162FCE7F0B5040094
:1019500085B0002845D00368DB072FD423689B0798
:1019600000D581E023681B0700D5BCE023685B0736
:1019700000D5DFE02368DB061AD562690423B44D85
:10198000012A00D048E1696B02270B436B636B6B44
:101990001A436A63FFF73CFC06006B6B3B4200D1C5
:1019A00033E1F8216A6BA3698A43DB0013436B635D
:1019B000236A002B00D057E100202AE00C22A44D1E
:1019C0006B681340042B06D06B681340082B0AD1B8
:1019D0006B68DB0307D52B689B03BFD56368002BBF
:1019E000BCD1012015E06368012B14D180232A6843
:1019F0005B0213432B60FFF70BFC80270600BF023E
:101A00002B683B42AAD1FFF703FC801B6428F7D95F
:101A1000032005B0F0BD002B16D12B688D4A80271E
:101A200013402B602B688C4ABF0213402B60FFF7DA
:101A3000EFFB06002B683B4200D18FE7FFF7E8FB86
:101A4000801B6428F6D9E3E7052B05D180232A689B
:101A5000DB0213432B60C9E72B687E4A13402B60DF
:101A60002B687D4A1340C5E70C22794D6B68134201
:101A700006D06B681340082B10D16B68DB030DD4C4
:101A80002B689B0702D5E368012BAAD1F8212A68AD
:101A900023698A43DB0013432B6063E7E268012379
:101AA000002A0FD02A68022713432B60FFF7B0FBF0
:101AB00006002B683B42E9D1FFF7AAFB801B0228F6
:101AC000F7D9A5E72A6802279A432A60FFF7A0FB07
:101AD00006002B683B4200D144E7FFF799FB801BCF
:101AE0000228F6D994E7E2690123594D002A10D063
:101AF0006A6A022713436B62FFF78AFB06006B6A70
:101B00003B4200D032E7FFF783FB801B0228F6D967
:101B10007EE76A6A02279A436A62FFF779FB06004A
:101B20006B6A3B4200D121E7FFF772FB801B022862
:101B3000F6D96DE780220021454D5205EB690091F1
:101B4000134208D1EB691343EB61EB691340039334
:101B5000039B012300938027404E7F0033683B4264
:101B600015D0A368012B22D12A6A13432B62FFF7F9
:101B70004FFB022706002B6A3B423FD0009B012B04
:101B800000D0F7E6EB69364A1340EB61F2E63368C2
:101B90003B433360FFF73CFB019033683B42E0D1AD
:101BA000FFF736FB019BC01A6428F6D930E7012203
:101BB000002B14D12B6A022793432B622B6A03322A
:101BC00093432B62FFF724FB06002B6A3B42D5D0E0
:101BD000FFF71EFB234B801B9842F6D918E7052B15
:101BE00005D1296A013B0B432B622B6ABDE72B6AA7
:101BF000934304222B622B6A9343B7E7FFF708FB5A
:101C0000184B801B9842B6D902E7FFF701FB801BF7
:101C1000022800D8C1E6FBE6053203D16A6B9A437D
:101C20006A63BEE66A6B0227134301226B636B6B28
:101C300093436B63FFF7ECFA06006B6B3B4200D1FA
:101C4000B6E6FFF7E5FA801B0228F6D9E0E6C046C3
:101C500000100240FFFFFEFFFFFFFBFF007000408F
:101C6000FFFFFFEF881300000C21344D6A680A4023
:101C7000082A47D0324A022B32D12B6880271340E2
:101C80002B60FFF7C5FA0600BF042B683B4221D149
:101C90000F22EB6A80269343E26AB6041343EB6299
:101CA000616AA36A6A680B4326490A4013436B6062
:101CB00080232A685B0413432B60FFF7A9FA040012
:101CC0002B68334200D077E6FFF7A2FA001B022808
:101CD000F6D99DE6FFF79CFA801B0228D5D997E636
:101CE0002B68802613402B60FFF792FA0400B6049D
:101CF0002B68334200D15FE6FFF78AFA001B022807
:101D0000F6D985E6012B00D16BE680226868616A0E
:101D10005202EB6A02408A4200D062E60F22134070
:101D2000E26A934200D05CE6F0239B031840A36A6A
:101D3000C01A431E9841C0B26BE6C0460010024074
:101D4000FFFFFFFEFFFFC2FF0C2270B50C4D6B685A
:101D50001A40082A11D10F200A499A0C02408C5CC3
:101D6000EA6ADB0307D508490240895C0748FEF7A9
:101D7000CBF9604370BD0648FBE70448FAE7C0466C
:101D8000001002407E2000086E20000800127A0039
:101D900000093D00F7B504000E00002801D1012024
:101DA000FEBD0122374D2B6813408B421CD32268A5
:101DB000930722D4D2072FD401232A681A40B242B3
:101DC00051D82368304D5B0754D4FFF7BDFF6B68D3
:101DD0002E4A1B061B0FD35C2D49D84008600320F8
:101DE000FFF7D6F90020DBE72B6893430B432B600A
:101DF0002B6813408B42D2D1D9E72349530704D52E
:101E0000E0234868DB0003434B60F0204B688343CA
:101E1000A06803434B60CDE71B4F62683B68012A13
:101E200019D19B03BBD503217B688B4313437B6094
:101E3000FFF7EEF901900C237A681A4063689B0063
:101E40009A42B9D0FFF7E4F9019BC01A114B9842AE
:101E5000F1D90320A4E7022A02D19B01E3D49EE733
:101E60009B07E0D49BE72A689A432A602A681A42B3
:101E7000A7D094E76B68084A1340E26813436B608D
:101E8000A3E7C04600200240001002405E20000888
:101E90000000002088130000FFF8FFFF7047704724
:101EA0007047704770470222036870B5DD681E698D
:101EB000040016420DD015420BD0053A1A610432C7
:101EC00002779B699B0700D171E0FFF7E9FF0023D0
:101ED000237704231E4211D01D420FD00522236810
:101EE00052421A61073222779A69C0239B00200070
:101EF0001A4262D0FFF7D4FF0023237708231E4243
:101F00000FD01D420DD00922236852421A610D32B2
:101F10002277DB6920009B0755D0FFF7C1FF002324
:101F2000237710231E4211D01D420FD011222368A7
:101F300052421A6119322277DA69C0239B002000CD
:101F40001A4246D0FFF7ACFF0023237701231E423D
:101F500008D01D4206D002222368524220001A6196
:101F6000FFF79CFF80231E4208D01D4206D081222D
:101F70002368524220001A6100F032F840231E42CA
:101F800008D01D4206D041222368524220001A6127
:101F9000FFF788FF20231E4208D01D4206D02122D1
:101FA0002368524220001A6100F019F870BDFFF753
:101FB00076FF2000FFF775FF89E7FFF770FF20002D
:101FC000FFF76FFF98E7FFF76AFF2000FFF769FF51
:101FD000A5E7FFF764FF2000FFF763FFB4E7704752
:101FE000704703008218934200D170471970013383
:101FF000F9E7000070B500260C4C0D4D641BA410D1
:10200000A64209D1002600F019F80A4C0A4D641BBB
:10201000A410A64205D170BDB300EB589847013615
:10202000EEE7B300EB5898470136F2E7902000083E
:10203000902000089420000890200008F8B5C046C1
:10204000F8BC08BC9E467047F8B5C046F8BC08BC52
:042050009E467047F1
:10205400C0F9A4B0999282F88090000000000000BA
:10206400000001020304060708090102030405062F
:102074000708090A0B0C0D0E0F10020304050607CE
:0C20840008090A0B0C0D0E0F10100000D4
:04209000E90000085B
:04209400C10000087F
:0C20980000127A000100000004000000AB
:040000050800113DA1
:00000001FF
